{
  "_format": "hh-sol-artifact-1",
  "contractName": "CertificateRegistry",
  "sourceName": "contracts/CertificateRegistry.sol",
  "abi": [
    {
      "inputs": [
        {
          "internalType": "address",
          "name": "initialOwner",
          "type": "address"
        }
      ],
      "stateMutability": "nonpayable",
      "type": "constructor"
    },
    {
      "inputs": [],
      "name": "ECDSAInvalidSignature",
      "type": "error"
    },
    {
      "inputs": [
        {
          "internalType": "uint256",
          "name": "length",
          "type": "uint256"
        }
      ],
      "name": "ECDSAInvalidSignatureLength",
      "type": "error"
    },
    {
      "inputs": [
        {
          "internalType": "bytes32",
          "name": "s",
          "type": "bytes32"
        }
      ],
      "name": "ECDSAInvalidSignatureS",
      "type": "error"
    },
    {
      "inputs": [],
      "name": "InvalidShortString",
      "type": "error"
    },
    {
      "inputs": [
        {
          "internalType": "address",
          "name": "owner",
          "type": "address"
        }
      ],
      "name": "OwnableInvalidOwner",
      "type": "error"
    },
    {
      "inputs": [
        {
          "internalType": "address",
          "name": "account",
          "type": "address"
        }
      ],
      "name": "OwnableUnauthorizedAccount",
      "type": "error"
    },
    {
      "inputs": [],
      "name": "ReentrancyGuardReentrantCall",
      "type": "error"
    },
    {
      "inputs": [
        {
          "internalType": "string",
          "name": "str",
          "type": "string"
        }
      ],
      "name": "StringTooLong",
      "type": "error"
    },
    {
      "anonymous": false,
      "inputs": [
        {
          "indexed": true,
          "internalType": "bytes32",
          "name": "certificateId",
          "type": "bytes32"
        },
        {
          "indexed": true,
          "internalType": "address",
          "name": "issuer",
          "type": "address"
        },
        {
          "indexed": false,
          "internalType": "bytes32",
          "name": "docHash",
          "type": "bytes32"
        },
        {
          "indexed": false,
          "internalType": "string",
          "name": "storageURI",
          "type": "string"
        },
        {
          "indexed": false,
          "internalType": "uint64",
          "name": "issuedAt",
          "type": "uint64"
        },
        {
          "indexed": false,
          "internalType": "bytes16",
          "name": "salt",
          "type": "bytes16"
        }
      ],
      "name": "CertificateIssued",
      "type": "event"
    },
    {
      "anonymous": false,
      "inputs": [
        {
          "indexed": true,
          "internalType": "bytes32",
          "name": "certificateId",
          "type": "bytes32"
        },
        {
          "indexed": true,
          "internalType": "address",
          "name": "issuer",
          "type": "address"
        },
        {
          "indexed": false,
          "internalType": "string",
          "name": "reason",
          "type": "string"
        },
        {
          "indexed": false,
          "internalType": "uint64",
          "name": "revokedAt",
          "type": "uint64"
        }
      ],
      "name": "CertificateRevoked",
      "type": "event"
    },
    {
      "anonymous": false,
      "inputs": [],
      "name": "EIP712DomainChanged",
      "type": "event"
    },
    {
      "anonymous": false,
      "inputs": [
        {
          "indexed": true,
          "internalType": "address",
          "name": "issuer",
          "type": "address"
        },
        {
          "indexed": false,
          "internalType": "bool",
          "name": "authorized",
          "type": "bool"
        }
      ],
      "name": "IssuerUpdated",
      "type": "event"
    },
    {
      "anonymous": false,
      "inputs": [
        {
          "indexed": true,
          "internalType": "address",
          "name": "previousOwner",
          "type": "address"
        },
        {
          "indexed": true,
          "internalType": "address",
          "name": "newOwner",
          "type": "address"
        }
      ],
      "name": "OwnershipTransferred",
      "type": "event"
    },
    {
      "inputs": [
        {
          "internalType": "address",
          "name": "issuer",
          "type": "address"
        }
      ],
      "name": "addIssuer",
      "outputs": [],
      "stateMutability": "nonpayable",
      "type": "function"
    },
    {
      "inputs": [
        {
          "internalType": "bytes32",
          "name": "certificateId",
          "type": "bytes32"
        }
      ],
      "name": "certificateStatus",
      "outputs": [
        {
          "internalType": "enum CertificateRegistry.Status",
          "name": "",
          "type": "uint8"
        }
      ],
      "stateMutability": "view",
      "type": "function"
    },
    {
      "inputs": [],
      "name": "eip712Domain",
      "outputs": [
        {
          "internalType": "bytes1",
          "name": "fields",
          "type": "bytes1"
        },
        {
          "internalType": "string",
          "name": "name",
          "type": "string"
        },
        {
          "internalType": "string",
          "name": "version",
          "type": "string"
        },
        {
          "internalType": "uint256",
          "name": "chainId",
          "type": "uint256"
        },
        {
          "internalType": "address",
          "name": "verifyingContract",
          "type": "address"
        },
        {
          "internalType": "bytes32",
          "name": "salt",
          "type": "bytes32"
        },
        {
          "internalType": "uint256[]",
          "name": "extensions",
          "type": "uint256[]"
        }
      ],
      "stateMutability": "view",
      "type": "function"
    },
    {
      "inputs": [
        {
          "internalType": "bytes32",
          "name": "certificateId",
          "type": "bytes32"
        }
      ],
      "name": "getCertificate",
      "outputs": [
        {
          "components": [
            {
              "internalType": "bytes32",
              "name": "docHash",
              "type": "bytes32"
            },
            {
              "internalType": "string",
              "name": "storageURI",
              "type": "string"
            },
            {
              "internalType": "address",
              "name": "issuer",
              "type": "address"
            },
            {
              "internalType": "uint64",
              "name": "issuedAt",
              "type": "uint64"
            },
            {
              "internalType": "enum CertificateRegistry.Status",
              "name": "status",
              "type": "uint8"
            },
            {
              "internalType": "string",
              "name": "revokeReason",
              "type": "string"
            },
            {
              "internalType": "uint64",
              "name": "revokedAt",
              "type": "uint64"
            },
            {
              "internalType": "bytes",
              "name": "issuerSignature",
              "type": "bytes"
            },
            {
              "internalType": "bytes16",
              "name": "salt",
              "type": "bytes16"
            }
          ],
          "internalType": "struct CertificateRegistry.Certificate",
          "name": "",
          "type": "tuple"
        }
      ],
      "stateMutability": "view",
      "type": "function"
    },
    {
      "inputs": [
        {
          "internalType": "address",
          "name": "",
          "type": "address"
        }
      ],
      "name": "isAuthorizedIssuer",
      "outputs": [
        {
          "internalType": "bool",
          "name": "",
          "type": "bool"
        }
      ],
      "stateMutability": "view",
      "type": "function"
    },
    {
      "inputs": [
        {
          "internalType": "bytes32",
          "name": "certificateId",
          "type": "bytes32"
        },
        {
          "internalType": "bytes32",
          "name": "docHash",
          "type": "bytes32"
        },
        {
          "internalType": "string",
          "name": "storageURI",
          "type": "string"
        },
        {
          "internalType": "address",
          "name": "issuer",
          "type": "address"
        },
        {
          "internalType": "uint64",
          "name": "issuedAt",
          "type": "uint64"
        },
        {
          "internalType": "bytes16",
          "name": "salt",
          "type": "bytes16"
        },
        {
          "internalType": "bytes",
          "name": "issuerSignature",
          "type": "bytes"
        }
      ],
      "name": "issueCertificate",
      "outputs": [],
      "stateMutability": "nonpayable",
      "type": "function"
    },
    {
      "inputs": [],
      "name": "owner",
      "outputs": [
        {
          "internalType": "address",
          "name": "",
          "type": "address"
        }
      ],
      "stateMutability": "view",
      "type": "function"
    },
    {
      "inputs": [
        {
          "internalType": "address",
          "name": "issuer",
          "type": "address"
        }
      ],
      "name": "removeIssuer",
      "outputs": [],
      "stateMutability": "nonpayable",
      "type": "function"
    },
    {
      "inputs": [],
      "name": "renounceOwnership",
      "outputs": [],
      "stateMutability": "nonpayable",
      "type": "function"
    },
    {
      "inputs": [
        {
          "internalType": "bytes32",
          "name": "certificateId",
          "type": "bytes32"
        },
        {
          "internalType": "string",
          "name": "reason",
          "type": "string"
        }
      ],
      "name": "revokeCertificate",
      "outputs": [],
      "stateMutability": "nonpayable",
      "type": "function"
    },
    {
      "inputs": [
        {
          "internalType": "address",
          "name": "newOwner",
          "type": "address"
        }
      ],
      "name": "transferOwnership",
      "outputs": [],
      "stateMutability": "nonpayable",
      "type": "function"
    }
  ],
  "bytecode": "0x61016060405234801561001157600080fd5b50604051613dbe380380613dbe83398181016040528101906100339190610420565b806040518060400160405280601381526020017f43657274696669636174655265676973747279000000000000000000000000008152506040518060400160405280600181526020017f31000000000000000000000000000000000000000000000000000000000000008152506100b46000836101da60201b90919060201c565b61012081815250506100d06001826101da60201b90919060201c565b6101408181525050818051906020012060e08181525050808051906020012061010081815250504660a0818152505061010d61022a60201b60201c565b608081815250503073ffffffffffffffffffffffffffffffffffffffff1660c08173ffffffffffffffffffffffffffffffffffffffff16815250505050600073ffffffffffffffffffffffffffffffffffffffff168173ffffffffffffffffffffffffffffffffffffffff16036101bc5760006040517f1e4fbdf70000000000000000000000000000000000000000000000000000000081526004016101b3919061045c565b60405180910390fd5b6101cb8161028560201b60201c565b50600160038190555050610952565b60006020835110156101fc576101f58361034b60201b60201c565b9050610224565b8261020c836103b360201b60201c565b600001908161021b91906106c7565b5060ff60001b90505b92915050565b60007f8b73c3c69bb8fe3d512ecc4cf759cc79239f7b179b0ffacaa9a75d522b39400f60e05161010051463060405160200161026a9594939291906107c1565b60405160208183030381529060405280519060200120905090565b6000600260009054906101000a900473ffffffffffffffffffffffffffffffffffffffff16905081600260006101000a81548173ffffffffffffffffffffffffffffffffffffffff021916908373ffffffffffffffffffffffffffffffffffffffff1602179055508173ffffffffffffffffffffffffffffffffffffffff168173ffffffffffffffffffffffffffffffffffffffff167f8be0079c531659141344cd1fd0a4f28419497f9722a3daafe3b4186f6b6457e060405160405180910390a35050565b600080829050601f8151111561039857826040517f305a27a900000000000000000000000000000000000000000000000000000000815260040161038f9190610899565b60405180910390fd5b8051816103a4906108eb565b60001c1760001b915050919050565b6000819050919050565b600080fd5b600073ffffffffffffffffffffffffffffffffffffffff82169050919050565b60006103ed826103c2565b9050919050565b6103fd816103e2565b811461040857600080fd5b50565b60008151905061041a816103f4565b92915050565b600060208284031215610436576104356103bd565b5b60006104448482850161040b565b91505092915050565b610456816103e2565b82525050565b6000602082019050610471600083018461044d565b92915050565b600081519050919050565b7f4e487b7100000000000000000000000000000000000000000000000000000000600052604160045260246000fd5b7f4e487b7100000000000000000000000000000000000000000000000000000000600052602260045260246000fd5b600060028204905060018216806104f857607f821691505b60208210810361050b5761050a6104b1565b5b50919050565b60008190508160005260206000209050919050565b60006020601f8301049050919050565b600082821b905092915050565b6000600883026105737fffffffffffffffffffffffffffffffffffffffffffffffffffffffffffffffff82610536565b61057d8683610536565b95508019841693508086168417925050509392505050565b6000819050919050565b6000819050919050565b60006105c46105bf6105ba84610595565b61059f565b610595565b9050919050565b6000819050919050565b6105de836105a9565b6105f26105ea826105cb565b848454610543565b825550505050565b600090565b6106076105fa565b6106128184846105d5565b505050565b5b818110156106365761062b6000826105ff565b600181019050610618565b5050565b601f82111561067b5761064c81610511565b61065584610526565b81016020851015610664578190505b61067861067085610526565b830182610617565b50505b505050565b600082821c905092915050565b600061069e60001984600802610680565b1980831691505092915050565b60006106b7838361068d565b9150826002028217905092915050565b6106d082610477565b67ffffffffffffffff8111156106e9576106e8610482565b5b6106f382546104e0565b6106fe82828561063a565b600060209050601f831160018114610731576000841561071f578287015190505b61072985826106ab565b865550610791565b601f19841661073f86610511565b60005b8281101561076757848901518255600182019150602085019450602081019050610742565b868310156107845784890151610780601f89168261068d565b8355505b6001600288020188555050505b505050505050565b6000819050919050565b6107ac81610799565b82525050565b6107bb81610595565b82525050565b600060a0820190506107d660008301886107a3565b6107e360208301876107a3565b6107f060408301866107a3565b6107fd60608301856107b2565b61080a608083018461044d565b9695505050505050565b600082825260208201905092915050565b60005b83811015610843578082015181840152602081019050610828565b60008484015250505050565b6000601f19601f8301169050919050565b600061086b82610477565b6108758185610814565b9350610885818560208601610825565b61088e8161084f565b840191505092915050565b600060208201905081810360008301526108b38184610860565b905092915050565b600081519050919050565b6000819050602082019050919050565b60006108e28251610799565b80915050919050565b60006108f6826108bb565b82610900846108c6565b905061090b816108d6565b9250602082101561094b576109467fffffffffffffffffffffffffffffffffffffffffffffffffffffffffffffffff83602003600802610536565b831692505b5050919050565b60805160a05160c05160e0516101005161012051610140516134126109ac600039600061151e015260006114e301526000611af701526000611ad6015260006117ad015260006118030152600061182c01526134126000f3fe608060405234801561001057600080fd5b50600436106100a95760003560e01c8063715018a611610071578063715018a61461016257806384b0196e1461016c5780638da5cb5b146101905780638dc7a67f146101ae578063f2fde38b146101ca578063f333fe08146101e6576100a9565b806320694db0146100ae57806331ba1966146100ca5780633658d476146100fa57806347bc70931461012a5780635bf4adfb14610146575b600080fd5b6100c860048036038101906100c39190611d41565b610216565b005b6100e460048036038101906100df9190611d41565b6103c4565b6040516100f19190611d89565b60405180910390f35b610114600480360381019061010f9190611dda565b6103e4565b6040516101219190611e7e565b60405180910390f35b610144600480360381019061013f9190611d41565b610411565b005b610160600480360381019061015b9190611efe565b61054f565b005b61016a61084f565b005b610174610863565b604051610187979695949392919061211e565b60405180910390f35b61019861090d565b6040516101a591906121a2565b60405180910390f35b6101c860048036038101906101c391906122ab565b610937565b005b6101e460048036038101906101df9190611d41565b610f97565b005b61020060048036038101906101fb9190611dda565b61101d565b60405161020d919061254a565b60405180910390f35b61021e61133d565b600073ffffffffffffffffffffffffffffffffffffffff168173ffffffffffffffffffffffffffffffffffffffff160361028d576040517f08c379a0000000000000000000000000000000000000000000000000000000008152600401610284906125b8565b60405180910390fd5b600660008273ffffffffffffffffffffffffffffffffffffffff1673ffffffffffffffffffffffffffffffffffffffff16815260200190815260200160002060009054906101000a900460ff161561031a576040517f08c379a000000000000000000000000000000000000000000000000000000000815260040161031190612624565b60405180910390fd5b6001600660008373ffffffffffffffffffffffffffffffffffffffff1673ffffffffffffffffffffffffffffffffffffffff16815260200190815260200160002060006101000a81548160ff0219169083151502179055508073ffffffffffffffffffffffffffffffffffffffff167f2da8853a4b9cb460e0d55b3ebaf4233e43c285958527a4dc0b67aa4b71b91af860016040516103b99190611d89565b60405180910390a250565b60066020528060005260406000206000915054906101000a900460ff1681565b600060046000838152602001908152602001600020600201601c9054906101000a900460ff169050919050565b61041961133d565b600660008273ffffffffffffffffffffffffffffffffffffffff1673ffffffffffffffffffffffffffffffffffffffff16815260200190815260200160002060009054906101000a900460ff166104a5576040517f08c379a000000000000000000000000000000000000000000000000000000000815260040161049c90612690565b60405180910390fd5b6000600660008373ffffffffffffffffffffffffffffffffffffffff1673ffffffffffffffffffffffffffffffffffffffff16815260200190815260200160002060006101000a81548160ff0219169083151502179055508073ffffffffffffffffffffffffffffffffffffffff167f2da8853a4b9cb460e0d55b3ebaf4233e43c285958527a4dc0b67aa4b71b91af860006040516105449190611d89565b60405180910390a250565b6105576113c4565b60006004600085815260200190815260200160002090506001600281111561058257610581611e07565b5b81600201601c9054906101000a900460ff1660028111156105a6576105a5611e07565b5b146105e6576040517f08c379a00000000000000000000000000000000000000000000000000000000081526004016105dd906126fc565b60405180910390fd5b6105ee61090d565b73ffffffffffffffffffffffffffffffffffffffff163373ffffffffffffffffffffffffffffffffffffffff16148061067657508060020160009054906101000a900473ffffffffffffffffffffffffffffffffffffffff1673ffffffffffffffffffffffffffffffffffffffff163373ffffffffffffffffffffffffffffffffffffffff16145b6106b5576040517f08c379a00000000000000000000000000000000000000000000000000000000081526004016106ac90612768565b60405180910390fd5b600083839050905060008111610700576040517f08c379a00000000000000000000000000000000000000000000000000000000081526004016106f7906127d4565b60405180910390fd5b610100811115610745576040517f08c379a000000000000000000000000000000000000000000000000000000000815260040161073c90612840565b60405180910390fd5b600282600201601c6101000a81548160ff0219169083600281111561076d5761076c611e07565b5b02179055508383836003019182610785929190612aa6565b50428260040160006101000a81548167ffffffffffffffff021916908367ffffffffffffffff1602179055508160020160009054906101000a900473ffffffffffffffffffffffffffffffffffffffff1673ffffffffffffffffffffffffffffffffffffffff16857f865d29fb1978285be299cb928643a1123da5a6814911af0418546955536749b986868660040160009054906101000a900467ffffffffffffffff1660405161083893929190612bc1565b60405180910390a3505061084a61140a565b505050565b61085761133d565b6108616000611414565b565b6000606080600080600060606108776114da565b61087f611515565b46306000801b600067ffffffffffffffff8111156108a05761089f61286b565b5b6040519080825280602002602001820160405280156108ce5781602001602082028036833780820191505090505b507f0f00000000000000000000000000000000000000000000000000000000000000959493929190965096509650965096509650965090919293949596565b6000600260009054906101000a900473ffffffffffffffffffffffffffffffffffffffff16905090565b61093f6113c4565b600660008673ffffffffffffffffffffffffffffffffffffffff1673ffffffffffffffffffffffffffffffffffffffff16815260200190815260200160002060009054906101000a900460ff166109cb576040517f08c379a00000000000000000000000000000000000000000000000000000000081526004016109c290612c3f565b60405180910390fd5b600060028111156109df576109de611e07565b5b600460008b8152602001908152602001600020600201601c9054906101000a900460ff166002811115610a1557610a14611e07565b5b14610a55576040517f08c379a0000000000000000000000000000000000000000000000000000000008152600401610a4c90612cab565b60405180910390fd5b60008787905011610a9b576040517f08c379a0000000000000000000000000000000000000000000000000000000008152600401610a9290612d17565b60405180910390fd5b60008467ffffffffffffffff1611610ae8576040517f08c379a0000000000000000000000000000000000000000000000000000000008152600401610adf90612d83565b60405180910390fd5b60008886604051602001610afd929190612e0c565b6040516020818303038152906040528051906020012090506005600082815260200190815260200160002060009054906101000a900460ff1615610b76576040517f08c379a0000000000000000000000000000000000000000000000000000000008152600401610b6d90612e84565b60405180910390fd5b60008985884689604051602001610b91959493929190612eb3565b6040516020818303038152906040528051906020012090508a8114610beb576040517f08c379a0000000000000000000000000000000000000000000000000000000008152600401610be290612f52565b60405180910390fd5b6000610bfe8c8c8c8c8c8c8c8c8c611550565b90508773ffffffffffffffffffffffffffffffffffffffff168173ffffffffffffffffffffffffffffffffffffffff1614610c6e576040517f08c379a0000000000000000000000000000000000000000000000000000000008152600401610c6590612fbe565b60405180910390fd5b6040518061012001604052808c81526020018b8b8080601f016020809104026020016040519081016040528093929190818152602001838380828437600081840152601f19601f8201169050808301925050505050505081526020018973ffffffffffffffffffffffffffffffffffffffff1681526020018867ffffffffffffffff16815260200160016002811115610d0a57610d09611e07565b5b8152602001604051806020016040528060008152508152602001600067ffffffffffffffff16815260200186868080601f016020809104026020016040519081016040528093929190818152602001838380828437600081840152601f19601f820116905080830192505050505050508152602001876fffffffffffffffffffffffffffffffff1916815250600460008e8152602001908152602001600020600082015181600001556020820151816001019081610dc89190612fde565b5060408201518160020160006101000a81548173ffffffffffffffffffffffffffffffffffffffff021916908373ffffffffffffffffffffffffffffffffffffffff16021790555060608201518160020160146101000a81548167ffffffffffffffff021916908367ffffffffffffffff160217905550608082015181600201601c6101000a81548160ff02191690836002811115610e6a57610e69611e07565b5b021790555060a0820151816003019081610e849190612fde565b5060c08201518160040160006101000a81548167ffffffffffffffff021916908367ffffffffffffffff16021790555060e0820151816005019081610ec9919061310b565b506101008201518160060160006101000a8154816fffffffffffffffffffffffffffffffff021916908360801c021790555090505060016005600085815260200190815260200160002060006101000a81548160ff0219169083151502179055508773ffffffffffffffffffffffffffffffffffffffff168c7f9785a0bd0b3fb086ef7cae9dd038e51a3917910c3c4fba7caa0e0c63bc393b658d8d8d8c8c604051610f799594939291906131dd565b60405180910390a3505050610f8c61140a565b505050505050505050565b610f9f61133d565b600073ffffffffffffffffffffffffffffffffffffffff168173ffffffffffffffffffffffffffffffffffffffff16036110115760006040517f1e4fbdf700000000000000000000000000000000000000000000000000000000815260040161100891906121a2565b60405180910390fd5b61101a81611414565b50565b611025611c3b565b60046000838152602001908152602001600020604051806101200160405290816000820154815260200160018201805461105e906128c9565b80601f016020809104026020016040519081016040528092919081815260200182805461108a906128c9565b80156110d75780601f106110ac576101008083540402835291602001916110d7565b820191906000526020600020905b8154815290600101906020018083116110ba57829003601f168201915b505050505081526020016002820160009054906101000a900473ffffffffffffffffffffffffffffffffffffffff1673ffffffffffffffffffffffffffffffffffffffff1673ffffffffffffffffffffffffffffffffffffffff1681526020016002820160149054906101000a900467ffffffffffffffff1667ffffffffffffffff1667ffffffffffffffff16815260200160028201601c9054906101000a900460ff16600281111561118d5761118c611e07565b5b600281111561119f5761119e611e07565b5b81526020016003820180546111b3906128c9565b80601f01602080910402602001604051908101604052809291908181526020018280546111df906128c9565b801561122c5780601f106112015761010080835404028352916020019161122c565b820191906000526020600020905b81548152906001019060200180831161120f57829003601f168201915b505050505081526020016004820160009054906101000a900467ffffffffffffffff1667ffffffffffffffff1667ffffffffffffffff168152602001600582018054611277906128c9565b80601f01602080910402602001604051908101604052809291908181526020018280546112a3906128c9565b80156112f05780601f106112c5576101008083540402835291602001916112f0565b820191906000526020600020905b8154815290600101906020018083116112d357829003601f168201915b505050505081526020016006820160009054906101000a900460801b6fffffffffffffffffffffffffffffffff19166fffffffffffffffffffffffffffffffff1916815250509050919050565b611345611637565b73ffffffffffffffffffffffffffffffffffffffff1661136361090d565b73ffffffffffffffffffffffffffffffffffffffff16146113c257611386611637565b6040517f118cdaa70000000000000000000000000000000000000000000000000000000081526004016113b991906121a2565b60405180910390fd5b565b600260035403611400576040517f3ee5aeb500000000000000000000000000000000000000000000000000000000815260040160405180910390fd5b6002600381905550565b6001600381905550565b6000600260009054906101000a900473ffffffffffffffffffffffffffffffffffffffff16905081600260006101000a81548173ffffffffffffffffffffffffffffffffffffffff021916908373ffffffffffffffffffffffffffffffffffffffff1602179055508173ffffffffffffffffffffffffffffffffffffffff168173ffffffffffffffffffffffffffffffffffffffff167f8be0079c531659141344cd1fd0a4f28419497f9722a3daafe3b4186f6b6457e060405160405180910390a35050565b606061151060007f000000000000000000000000000000000000000000000000000000000000000061163f90919063ffffffff16565b905090565b606061154b60017f000000000000000000000000000000000000000000000000000000000000000061163f90919063ffffffff16565b905090565b6000807f4b562eb251233df69234f47d5cfa0779ac7d5aeb3c235846080853cafdbff6458b8b8b8b60405161158692919061325b565b60405180910390208a8a67ffffffffffffffff16468b6040516020016115b3989796959493929190613274565b60405160208183030381529060405280519060200120905060006115d6826116ef565b90506116268186868080601f016020809104026020016040519081016040528093929190818152602001838380828437600081840152601f19601f82011690508083019250505050505050611709565b925050509998505050505050505050565b600033905090565b606060ff60001b831461165c5761165583611735565b90506116e9565b818054611668906128c9565b80601f0160208091040260200160405190810160405280929190818152602001828054611694906128c9565b80156116e15780601f106116b6576101008083540402835291602001916116e1565b820191906000526020600020905b8154815290600101906020018083116116c457829003601f168201915b505050505090505b92915050565b60006117026116fc6117a9565b83611860565b9050919050565b60008060008061171986866118a1565b92509250925061172982826118fd565b82935050505092915050565b6060600061174283611a61565b90506000602067ffffffffffffffff8111156117615761176061286b565b5b6040519080825280601f01601f1916602001820160405280156117935781602001600182028036833780820191505090505b5090508181528360208201528092505050919050565b60007f000000000000000000000000000000000000000000000000000000000000000073ffffffffffffffffffffffffffffffffffffffff163073ffffffffffffffffffffffffffffffffffffffff1614801561182557507f000000000000000000000000000000000000000000000000000000000000000046145b15611852577f0000000000000000000000000000000000000000000000000000000000000000905061185d565b61185a611ab1565b90505b90565b60006040517f190100000000000000000000000000000000000000000000000000000000000081528360028201528260228201526042812091505092915050565b600080600060418451036118e65760008060006020870151925060408701519150606087015160001a90506118d888828585611b47565b9550955095505050506118f6565b60006002855160001b9250925092505b9250925092565b6000600381111561191157611910611e07565b5b82600381111561192457611923611e07565b5b0315611a5d576001600381111561193e5761193d611e07565b5b82600381111561195157611950611e07565b5b03611988576040517ff645eedf00000000000000000000000000000000000000000000000000000000815260040160405180910390fd5b6002600381111561199c5761199b611e07565b5b8260038111156119af576119ae611e07565b5b036119f4578060001c6040517ffce698f70000000000000000000000000000000000000000000000000000000081526004016119eb91906132f2565b60405180910390fd5b600380811115611a0757611a06611e07565b5b826003811115611a1a57611a19611e07565b5b03611a5c57806040517fd78bce0c000000000000000000000000000000000000000000000000000000008152600401611a53919061330d565b60405180910390fd5b5b5050565b60008060ff8360001c169050601f811115611aa8576040517fb3512b0c00000000000000000000000000000000000000000000000000000000815260040160405180910390fd5b80915050919050565b60007f8b73c3c69bb8fe3d512ecc4cf759cc79239f7b179b0ffacaa9a75d522b39400f7f00000000000000000000000000000000000000000000000000000000000000007f00000000000000000000000000000000000000000000000000000000000000004630604051602001611b2c959493929190613328565b60405160208183030381529060405280519060200120905090565b60008060007f7fffffffffffffffffffffffffffffff5d576e7357a4501ddfe92f46681b20a08460001c1115611b87576000600385925092509250611c31565b600060018888888860405160008152602001604052604051611bac9493929190613397565b6020604051602081039080840390855afa158015611bce573d6000803e3d6000fd5b505050602060405103519050600073ffffffffffffffffffffffffffffffffffffffff168173ffffffffffffffffffffffffffffffffffffffff1603611c2257600060016000801b93509350935050611c31565b8060008060001b935093509350505b9450945094915050565b6040518061012001604052806000801916815260200160608152602001600073ffffffffffffffffffffffffffffffffffffffff168152602001600067ffffffffffffffff16815260200160006002811115611c9a57611c99611e07565b5b815260200160608152602001600067ffffffffffffffff1681526020016060815260200160006fffffffffffffffffffffffffffffffff191681525090565b600080fd5b600080fd5b600073ffffffffffffffffffffffffffffffffffffffff82169050919050565b6000611d0e82611ce3565b9050919050565b611d1e81611d03565b8114611d2957600080fd5b50565b600081359050611d3b81611d15565b92915050565b600060208284031215611d5757611d56611cd9565b5b6000611d6584828501611d2c565b91505092915050565b60008115159050919050565b611d8381611d6e565b82525050565b6000602082019050611d9e6000830184611d7a565b92915050565b6000819050919050565b611db781611da4565b8114611dc257600080fd5b50565b600081359050611dd481611dae565b92915050565b600060208284031215611df057611def611cd9565b5b6000611dfe84828501611dc5565b91505092915050565b7f4e487b7100000000000000000000000000000000000000000000000000000000600052602160045260246000fd5b60038110611e4757611e46611e07565b5b50565b6000819050611e5882611e36565b919050565b6000611e6882611e4a565b9050919050565b611e7881611e5d565b82525050565b6000602082019050611e936000830184611e6f565b92915050565b600080fd5b600080fd5b600080fd5b60008083601f840112611ebe57611ebd611e99565b5b8235905067ffffffffffffffff811115611edb57611eda611e9e565b5b602083019150836001820283011115611ef757611ef6611ea3565b5b9250929050565b600080600060408486031215611f1757611f16611cd9565b5b6000611f2586828701611dc5565b935050602084013567ffffffffffffffff811115611f4657611f45611cde565b5b611f5286828701611ea8565b92509250509250925092565b60007fff0000000000000000000000000000000000000000000000000000000000000082169050919050565b611f9381611f5e565b82525050565b600081519050919050565b600082825260208201905092915050565b60005b83811015611fd3578082015181840152602081019050611fb8565b60008484015250505050565b6000601f19601f8301169050919050565b6000611ffb82611f99565b6120058185611fa4565b9350612015818560208601611fb5565b61201e81611fdf565b840191505092915050565b6000819050919050565b61203c81612029565b82525050565b61204b81611d03565b82525050565b61205a81611da4565b82525050565b600081519050919050565b600082825260208201905092915050565b6000819050602082019050919050565b61209581612029565b82525050565b60006120a7838361208c565b60208301905092915050565b6000602082019050919050565b60006120cb82612060565b6120d5818561206b565b93506120e08361207c565b8060005b838110156121115781516120f8888261209b565b9750612103836120b3565b9250506001810190506120e4565b5085935050505092915050565b600060e082019050612133600083018a611f8a565b81810360208301526121458189611ff0565b905081810360408301526121598188611ff0565b90506121686060830187612033565b6121756080830186612042565b61218260a0830185612051565b81810360c083015261219481846120c0565b905098975050505050505050565b60006020820190506121b76000830184612042565b92915050565b600067ffffffffffffffff82169050919050565b6121da816121bd565b81146121e557600080fd5b50565b6000813590506121f7816121d1565b92915050565b60007fffffffffffffffffffffffffffffffff0000000000000000000000000000000082169050919050565b612232816121fd565b811461223d57600080fd5b50565b60008135905061224f81612229565b92915050565b60008083601f84011261226b5761226a611e99565b5b8235905067ffffffffffffffff81111561228857612287611e9e565b5b6020830191508360018202830111156122a4576122a3611ea3565b5b9250929050565b600080600080600080600080600060e08a8c0312156122cd576122cc611cd9565b5b60006122db8c828d01611dc5565b99505060206122ec8c828d01611dc5565b98505060408a013567ffffffffffffffff81111561230d5761230c611cde565b5b6123198c828d01611ea8565b9750975050606061232c8c828d01611d2c565b955050608061233d8c828d016121e8565b94505060a061234e8c828d01612240565b93505060c08a013567ffffffffffffffff81111561236f5761236e611cde565b5b61237b8c828d01612255565b92509250509295985092959850929598565b61239681611da4565b82525050565b600082825260208201905092915050565b60006123b882611f99565b6123c2818561239c565b93506123d2818560208601611fb5565b6123db81611fdf565b840191505092915050565b6123ef81611d03565b82525050565b6123fe816121bd565b82525050565b61240d81611e5d565b82525050565b600081519050919050565b600082825260208201905092915050565b600061243a82612413565b612444818561241e565b9350612454818560208601611fb5565b61245d81611fdf565b840191505092915050565b612471816121fd565b82525050565b600061012083016000830151612490600086018261238d565b50602083015184820360208601526124a882826123ad565b91505060408301516124bd60408601826123e6565b5060608301516124d060608601826123f5565b5060808301516124e36080860182612404565b5060a083015184820360a08601526124fb82826123ad565b91505060c083015161251060c08601826123f5565b5060e083015184820360e0860152612528828261242f565b91505061010083015161253f610100860182612468565b508091505092915050565b600060208201905081810360008301526125648184612477565b905092915050565b7f497373756572207a65726f000000000000000000000000000000000000000000600082015250565b60006125a2600b83611fa4565b91506125ad8261256c565b602082019050919050565b600060208201905081810360008301526125d181612595565b9050919050565b7f416c726561647920697373756572000000000000000000000000000000000000600082015250565b600061260e600e83611fa4565b9150612619826125d8565b602082019050919050565b6000602082019050818103600083015261263d81612601565b9050919050565b7f4e6f742069737375657200000000000000000000000000000000000000000000600082015250565b600061267a600a83611fa4565b915061268582612644565b602082019050919050565b600060208201905081810360008301526126a98161266d565b9050919050565b7f4e6f742061637469766500000000000000000000000000000000000000000000600082015250565b60006126e6600a83611fa4565b91506126f1826126b0565b602082019050919050565b60006020820190508181036000830152612715816126d9565b9050919050565b7f4e6f7420617574686f72697a6564000000000000000000000000000000000000600082015250565b6000612752600e83611fa4565b915061275d8261271c565b602082019050919050565b6000602082019050818103600083015261278181612745565b9050919050565b7f526561736f6e2072657175697265640000000000000000000000000000000000600082015250565b60006127be600f83611fa4565b91506127c982612788565b602082019050919050565b600060208201905081810360008301526127ed816127b1565b9050919050565b7f526561736f6e20746f6f206c6f6e670000000000000000000000000000000000600082015250565b600061282a600f83611fa4565b9150612835826127f4565b602082019050919050565b600060208201905081810360008301526128598161281d565b9050919050565b600082905092915050565b7f4e487b7100000000000000000000000000000000000000000000000000000000600052604160045260246000fd5b7f4e487b7100000000000000000000000000000000000000000000000000000000600052602260045260246000fd5b600060028204905060018216806128e157607f821691505b6020821081036128f4576128f361289a565b5b50919050565b60008190508160005260206000209050919050565b60006020601f8301049050919050565b600082821b905092915050565b60006008830261295c7fffffffffffffffffffffffffffffffffffffffffffffffffffffffffffffffff8261291f565b612966868361291f565b95508019841693508086168417925050509392505050565b6000819050919050565b60006129a361299e61299984612029565b61297e565b612029565b9050919050565b6000819050919050565b6129bd83612988565b6129d16129c9826129aa565b84845461292c565b825550505050565b600090565b6129e66129d9565b6129f18184846129b4565b505050565b5b81811015612a1557612a0a6000826129de565b6001810190506129f7565b5050565b601f821115612a5a57612a2b816128fa565b612a348461290f565b81016020851015612a43578190505b612a57612a4f8561290f565b8301826129f6565b50505b505050565b600082821c905092915050565b6000612a7d60001984600802612a5f565b1980831691505092915050565b6000612a968383612a6c565b9150826002028217905092915050565b612ab08383612860565b67ffffffffffffffff811115612ac957612ac861286b565b5b612ad382546128c9565b612ade828285612a19565b6000601f831160018114612b0d5760008415612afb578287013590505b612b058582612a8a565b865550612b6d565b601f198416612b1b866128fa565b60005b82811015612b4357848901358255600182019150602085019450602081019050612b1e565b86831015612b605784890135612b5c601f891682612a6c565b8355505b6001600288020188555050505b50505050505050565b82818337600083830152505050565b6000612b918385611fa4565b9350612b9e838584612b76565b612ba783611fdf565b840190509392505050565b612bbb816121bd565b82525050565b60006040820190508181036000830152612bdc818587612b85565b9050612beb6020830184612bb2565b949350505050565b7f497373756572206e6f7420617574686f72697a65640000000000000000000000600082015250565b6000612c29601583611fa4565b9150612c3482612bf3565b602082019050919050565b60006020820190508181036000830152612c5881612c1c565b9050919050565b7f4365727469666963617465206578697374730000000000000000000000000000600082015250565b6000612c95601283611fa4565b9150612ca082612c5f565b602082019050919050565b60006020820190508181036000830152612cc481612c88565b9050919050565b7f73746f7261676555524920656d70747900000000000000000000000000000000600082015250565b6000612d01601083611fa4565b9150612d0c82612ccb565b602082019050919050565b60006020820190508181036000830152612d3081612cf4565b9050919050565b7f6973737565644174207a65726f00000000000000000000000000000000000000600082015250565b6000612d6d600d83611fa4565b9150612d7882612d37565b602082019050919050565b60006020820190508181036000830152612d9c81612d60565b9050919050565b6000819050919050565b612dbe612db982611da4565b612da3565b82525050565b60008160601b9050919050565b6000612ddc82612dc4565b9050919050565b6000612dee82612dd1565b9050919050565b612e06612e0182611d03565b612de3565b82525050565b6000612e188285612dad565b602082019150612e288284612df5565b6014820191508190509392505050565b7f4475706c696361746520646f63486173682b6973737565720000000000000000600082015250565b6000612e6e601883611fa4565b9150612e7982612e38565b602082019050919050565b60006020820190508181036000830152612e9d81612e61565b9050919050565b612ead816121fd565b82525050565b600060a082019050612ec86000830188612051565b612ed56020830187612ea4565b612ee26040830186612042565b612eef6060830185612033565b612efc6080830184612bb2565b9695505050505050565b7f63657274696669636174654964206d69736d6174636800000000000000000000600082015250565b6000612f3c601683611fa4565b9150612f4782612f06565b602082019050919050565b60006020820190508181036000830152612f6b81612f2f565b9050919050565b7f496e76616c6964207369676e6174757265000000000000000000000000000000600082015250565b6000612fa8601183611fa4565b9150612fb382612f72565b602082019050919050565b60006020820190508181036000830152612fd781612f9b565b9050919050565b612fe782611f99565b67ffffffffffffffff81111561300057612fff61286b565b5b61300a82546128c9565b613015828285612a19565b600060209050601f8311600181146130485760008415613036578287015190505b6130408582612a8a565b8655506130a8565b601f198416613056866128fa565b60005b8281101561307e57848901518255600182019150602085019450602081019050613059565b8683101561309b5784890151613097601f891682612a6c565b8355505b6001600288020188555050505b505050505050565b60008190508160005260206000209050919050565b601f821115613106576130d7816130b0565b6130e08461290f565b810160208510156130ef578190505b6131036130fb8561290f565b8301826129f6565b50505b505050565b61311482612413565b67ffffffffffffffff81111561312d5761312c61286b565b5b61313782546128c9565b6131428282856130c5565b600060209050601f8311600181146131755760008415613163578287015190505b61316d8582612a8a565b8655506131d5565b601f198416613183866130b0565b60005b828110156131ab57848901518255600182019150602085019450602081019050613186565b868310156131c857848901516131c4601f891682612a6c565b8355505b6001600288020188555050505b505050505050565b60006080820190506131f26000830188612051565b8181036020830152613205818688612b85565b90506132146040830185612bb2565b6132216060830184612ea4565b9695505050505050565b600081905092915050565b6000613242838561322b565b935061324f838584612b76565b82840190509392505050565b6000613268828486613236565b91508190509392505050565b60006101008201905061328a600083018b612051565b613297602083018a612051565b6132a46040830189612051565b6132b16060830188612051565b6132be6080830187612042565b6132cb60a0830186612033565b6132d860c0830185612033565b6132e560e0830184612ea4565b9998505050505050505050565b60006020820190506133076000830184612033565b92915050565b60006020820190506133226000830184612051565b92915050565b600060a08201905061333d6000830188612051565b61334a6020830187612051565b6133576040830186612051565b6133646060830185612033565b6133716080830184612042565b9695505050505050565b600060ff82169050919050565b6133918161337b565b82525050565b60006080820190506133ac6000830187612051565b6133b96020830186613388565b6133c66040830185612051565b6133d36060830184612051565b9594505050505056fea26469706673582212203b44cf807be3262282ec6eae0b2e4a504241f4feb03e6a35c5a6e8b746a6b67e64736f6c634300081c0033",
  "linkReferences": {},
  "deployedLinkReferences": {}
}