{
  "_format": "hh-sol-artifact-1",
  "contractName": "CertificateRegistry",
  "sourceName": "contracts/CertificateRegistry.sol",
  "abi": [
    {
      "inputs": [
        {
          "internalType": "address",
          "name": "initialOwner",
          "type": "address"
        }
      ],
      "stateMutability": "nonpayable",
      "type": "constructor"
    },
    {
      "inputs": [],
      "name": "ECDSAInvalidSignature",
      "type": "error"
    },
    {
      "inputs": [
        {
          "internalType": "uint256",
          "name": "length",
          "type": "uint256"
        }
      ],
      "name": "ECDSAInvalidSignatureLength",
      "type": "error"
    },
    {
      "inputs": [
        {
          "internalType": "bytes32",
          "name": "s",
          "type": "bytes32"
        }
      ],
      "name": "ECDSAInvalidSignatureS",
      "type": "error"
    },
    {
      "inputs": [],
      "name": "InvalidShortString",
      "type": "error"
    },
    {
      "inputs": [
        {
          "internalType": "address",
          "name": "owner",
          "type": "address"
        }
      ],
      "name": "OwnableInvalidOwner",
      "type": "error"
    },
    {
      "inputs": [
        {
          "internalType": "address",
          "name": "account",
          "type": "address"
        }
      ],
      "name": "OwnableUnauthorizedAccount",
      "type": "error"
    },
    {
      "inputs": [],
      "name": "ReentrancyGuardReentrantCall",
      "type": "error"
    },
    {
      "inputs": [
        {
          "internalType": "string",
          "name": "str",
          "type": "string"
        }
      ],
      "name": "StringTooLong",
      "type": "error"
    },
    {
      "anonymous": false,
      "inputs": [
        {
          "indexed": true,
          "internalType": "bytes32",
          "name": "certificateId",
          "type": "bytes32"
        },
        {
          "indexed": true,
          "internalType": "address",
          "name": "issuer",
          "type": "address"
        },
        {
          "indexed": false,
          "internalType": "bytes32",
          "name": "docHash",
          "type": "bytes32"
        },
        {
          "indexed": false,
          "internalType": "string",
          "name": "storageURI",
          "type": "string"
        },
        {
          "indexed": false,
          "internalType": "uint64",
          "name": "issuedAt",
          "type": "uint64"
        },
        {
          "indexed": false,
          "internalType": "bytes16",
          "name": "salt",
          "type": "bytes16"
        }
      ],
      "name": "CertificateIssued",
      "type": "event"
    },
    {
      "anonymous": false,
      "inputs": [
        {
          "indexed": true,
          "internalType": "bytes32",
          "name": "certificateId",
          "type": "bytes32"
        },
        {
          "indexed": true,
          "internalType": "address",
          "name": "issuer",
          "type": "address"
        },
        {
          "indexed": false,
          "internalType": "string",
          "name": "reason",
          "type": "string"
        },
        {
          "indexed": false,
          "internalType": "uint64",
          "name": "revokedAt",
          "type": "uint64"
        }
      ],
      "name": "CertificateRevoked",
      "type": "event"
    },
    {
      "anonymous": false,
      "inputs": [],
      "name": "EIP712DomainChanged",
      "type": "event"
    },
    {
      "anonymous": false,
      "inputs": [
        {
          "indexed": true,
          "internalType": "uint256",
          "name": "proposalId",
          "type": "uint256"
        },
        {
          "indexed": true,
          "internalType": "address",
          "name": "approver",
          "type": "address"
        },
        {
          "indexed": false,
          "internalType": "uint32",
          "name": "approvals",
          "type": "uint32"
        }
      ],
      "name": "IssuerUpdateApproved",
      "type": "event"
    },
    {
      "anonymous": false,
      "inputs": [
        {
          "indexed": true,
          "internalType": "uint256",
          "name": "proposalId",
          "type": "uint256"
        },
        {
          "indexed": false,
          "internalType": "enum CertificateRegistry.IssuerUpdateAction",
          "name": "action",
          "type": "uint8"
        },
        {
          "indexed": false,
          "internalType": "address",
          "name": "issuer",
          "type": "address"
        },
        {
          "indexed": false,
          "internalType": "address",
          "name": "newIssuer",
          "type": "address"
        }
      ],
      "name": "IssuerUpdateExecuted",
      "type": "event"
    },
    {
      "anonymous": false,
      "inputs": [
        {
          "indexed": true,
          "internalType": "uint256",
          "name": "proposalId",
          "type": "uint256"
        },
        {
          "indexed": false,
          "internalType": "enum CertificateRegistry.IssuerUpdateAction",
          "name": "action",
          "type": "uint8"
        },
        {
          "indexed": true,
          "internalType": "address",
          "name": "issuer",
          "type": "address"
        },
        {
          "indexed": true,
          "internalType": "address",
          "name": "newIssuer",
          "type": "address"
        },
        {
          "indexed": false,
          "internalType": "uint64",
          "name": "createdAt",
          "type": "uint64"
        }
      ],
      "name": "IssuerUpdateProposed",
      "type": "event"
    },
    {
      "anonymous": false,
      "inputs": [
        {
          "indexed": false,
          "internalType": "uint256",
          "name": "threshold",
          "type": "uint256"
        }
      ],
      "name": "IssuerUpdateThresholdUpdated",
      "type": "event"
    },
    {
      "anonymous": false,
      "inputs": [
        {
          "indexed": true,
          "internalType": "address",
          "name": "issuer",
          "type": "address"
        },
        {
          "indexed": false,
          "internalType": "bool",
          "name": "authorized",
          "type": "bool"
        }
      ],
      "name": "IssuerUpdated",
      "type": "event"
    },
    {
      "anonymous": false,
      "inputs": [
        {
          "indexed": true,
          "internalType": "address",
          "name": "previousOwner",
          "type": "address"
        },
        {
          "indexed": true,
          "internalType": "address",
          "name": "newOwner",
          "type": "address"
        }
      ],
      "name": "OwnershipTransferred",
      "type": "event"
    },
    {
      "inputs": [
        {
          "internalType": "address",
          "name": "issuer",
          "type": "address"
        }
      ],
      "name": "addIssuer",
      "outputs": [],
      "stateMutability": "nonpayable",
      "type": "function"
    },
    {
      "inputs": [
        {
          "internalType": "uint256",
          "name": "proposalId",
          "type": "uint256"
        }
      ],
      "name": "approveIssuerUpdate",
      "outputs": [],
      "stateMutability": "nonpayable",
      "type": "function"
    },
    {
      "inputs": [
        {
          "internalType": "bytes32",
          "name": "certificateId",
          "type": "bytes32"
        }
      ],
      "name": "certificateStatus",
      "outputs": [
        {
          "internalType": "enum CertificateRegistry.Status",
          "name": "",
          "type": "uint8"
        }
      ],
      "stateMutability": "view",
      "type": "function"
    },
    {
      "inputs": [],
      "name": "eip712Domain",
      "outputs": [
        {
          "internalType": "bytes1",
          "name": "fields",
          "type": "bytes1"
        },
        {
          "internalType": "string",
          "name": "name",
          "type": "string"
        },
        {
          "internalType": "string",
          "name": "version",
          "type": "string"
        },
        {
          "internalType": "uint256",
          "name": "chainId",
          "type": "uint256"
        },
        {
          "internalType": "address",
          "name": "verifyingContract",
          "type": "address"
        },
        {
          "internalType": "bytes32",
          "name": "salt",
          "type": "bytes32"
        },
        {
          "internalType": "uint256[]",
          "name": "extensions",
          "type": "uint256[]"
        }
      ],
      "stateMutability": "view",
      "type": "function"
    },
    {
      "inputs": [
        {
          "internalType": "uint256",
          "name": "proposalId",
          "type": "uint256"
        }
      ],
      "name": "executeIssuerUpdate",
      "outputs": [],
      "stateMutability": "nonpayable",
      "type": "function"
    },
    {
      "inputs": [
        {
          "internalType": "bytes32",
          "name": "certificateId",
          "type": "bytes32"
        }
      ],
      "name": "getCertificate",
      "outputs": [
        {
          "components": [
            {
              "internalType": "bytes32",
              "name": "docHash",
              "type": "bytes32"
            },
            {
              "internalType": "string",
              "name": "storageURI",
              "type": "string"
            },
            {
              "internalType": "address",
              "name": "issuer",
              "type": "address"
            },
            {
              "internalType": "uint64",
              "name": "issuedAt",
              "type": "uint64"
            },
            {
              "internalType": "enum CertificateRegistry.Status",
              "name": "status",
              "type": "uint8"
            },
            {
              "internalType": "string",
              "name": "revokeReason",
              "type": "string"
            },
            {
              "internalType": "uint64",
              "name": "revokedAt",
              "type": "uint64"
            },
            {
              "internalType": "bytes",
              "name": "issuerSignature",
              "type": "bytes"
            },
            {
              "internalType": "bytes16",
              "name": "salt",
              "type": "bytes16"
            },
            {
              "internalType": "bytes",
              "name": "revokeSignature",
              "type": "bytes"
            }
          ],
          "internalType": "struct CertificateRegistry.Certificate",
          "name": "",
          "type": "tuple"
        }
      ],
      "stateMutability": "view",
      "type": "function"
    },
    {
      "inputs": [],
      "name": "getIssuers",
      "outputs": [
        {
          "internalType": "address[]",
          "name": "",
          "type": "address[]"
        }
      ],
      "stateMutability": "view",
      "type": "function"
    },
    {
      "inputs": [
        {
          "internalType": "uint256",
          "name": "proposalId",
          "type": "uint256"
        },
        {
          "internalType": "address",
          "name": "approver",
          "type": "address"
        }
      ],
      "name": "hasApprovedIssuerUpdate",
      "outputs": [
        {
          "internalType": "bool",
          "name": "",
          "type": "bool"
        }
      ],
      "stateMutability": "view",
      "type": "function"
    },
    {
      "inputs": [
        {
          "internalType": "address",
          "name": "",
          "type": "address"
        }
      ],
      "name": "isAuthorizedIssuer",
      "outputs": [
        {
          "internalType": "bool",
          "name": "",
          "type": "bool"
        }
      ],
      "stateMutability": "view",
      "type": "function"
    },
    {
      "inputs": [
        {
          "internalType": "bytes32",
          "name": "certificateId",
          "type": "bytes32"
        },
        {
          "internalType": "bytes32",
          "name": "docHash",
          "type": "bytes32"
        },
        {
          "internalType": "string",
          "name": "storageURI",
          "type": "string"
        },
        {
          "internalType": "address",
          "name": "issuer",
          "type": "address"
        },
        {
          "internalType": "uint64",
          "name": "issuedAt",
          "type": "uint64"
        },
        {
          "internalType": "bytes16",
          "name": "salt",
          "type": "bytes16"
        },
        {
          "internalType": "bytes",
          "name": "issuerSignature",
          "type": "bytes"
        }
      ],
      "name": "issueCertificate",
      "outputs": [],
      "stateMutability": "nonpayable",
      "type": "function"
    },
    {
      "inputs": [
        {
          "internalType": "uint256",
          "name": "",
          "type": "uint256"
        }
      ],
      "name": "issuerUpdateProposals",
      "outputs": [
        {
          "internalType": "enum CertificateRegistry.IssuerUpdateAction",
          "name": "action",
          "type": "uint8"
        },
        {
          "internalType": "address",
          "name": "issuer",
          "type": "address"
        },
        {
          "internalType": "address",
          "name": "newIssuer",
          "type": "address"
        },
        {
          "internalType": "uint32",
          "name": "approvals",
          "type": "uint32"
        },
        {
          "internalType": "bool",
          "name": "executed",
          "type": "bool"
        },
        {
          "internalType": "uint64",
          "name": "createdAt",
          "type": "uint64"
        }
      ],
      "stateMutability": "view",
      "type": "function"
    },
    {
      "inputs": [],
      "name": "issuerUpdateThreshold",
      "outputs": [
        {
          "internalType": "uint256",
          "name": "",
          "type": "uint256"
        }
      ],
      "stateMutability": "view",
      "type": "function"
    },
    {
      "inputs": [],
      "name": "nextIssuerUpdateProposalId",
      "outputs": [
        {
          "internalType": "uint256",
          "name": "",
          "type": "uint256"
        }
      ],
      "stateMutability": "view",
      "type": "function"
    },
    {
      "inputs": [],
      "name": "owner",
      "outputs": [
        {
          "internalType": "address",
          "name": "",
          "type": "address"
        }
      ],
      "stateMutability": "view",
      "type": "function"
    },
    {
      "inputs": [
        {
          "internalType": "address",
          "name": "newIssuer",
          "type": "address"
        }
      ],
      "name": "proposeAddIssuer",
      "outputs": [
        {
          "internalType": "uint256",
          "name": "proposalId",
          "type": "uint256"
        }
      ],
      "stateMutability": "nonpayable",
      "type": "function"
    },
    {
      "inputs": [
        {
          "internalType": "address",
          "name": "issuer",
          "type": "address"
        },
        {
          "internalType": "address",
          "name": "newIssuer",
          "type": "address"
        }
      ],
      "name": "proposeRotateIssuer",
      "outputs": [
        {
          "internalType": "uint256",
          "name": "proposalId",
          "type": "uint256"
        }
      ],
      "stateMutability": "nonpayable",
      "type": "function"
    },
    {
      "inputs": [
        {
          "internalType": "address",
          "name": "issuer",
          "type": "address"
        }
      ],
      "name": "removeIssuer",
      "outputs": [],
      "stateMutability": "nonpayable",
      "type": "function"
    },
    {
      "inputs": [],
      "name": "renounceOwnership",
      "outputs": [],
      "stateMutability": "nonpayable",
      "type": "function"
    },
    {
      "inputs": [
        {
          "internalType": "bytes32",
          "name": "certificateId",
          "type": "bytes32"
        },
        {
          "internalType": "string",
          "name": "reason",
          "type": "string"
        },
        {
          "internalType": "bytes",
          "name": "issuerSignature",
          "type": "bytes"
        }
      ],
      "name": "revokeCertificate",
      "outputs": [],
      "stateMutability": "nonpayable",
      "type": "function"
    },
    {
      "inputs": [
        {
          "internalType": "uint256",
          "name": "threshold",
          "type": "uint256"
        }
      ],
      "name": "setIssuerUpdateThreshold",
      "outputs": [],
      "stateMutability": "nonpayable",
      "type": "function"
    },
    {
      "inputs": [
        {
          "internalType": "address",
          "name": "newOwner",
          "type": "address"
        }
      ],
      "name": "transferOwnership",
      "outputs": [],
      "stateMutability": "nonpayable",
      "type": "function"
    }
  ],
  "bytecode": "0x61016060405260016009556001600a5534801561001b57600080fd5b5060405161682e38038061682e833981810160405281019061003d919061042a565b806040518060400160405280601381526020017f43657274696669636174655265676973747279000000000000000000000000008152506040518060400160405280600181526020017f31000000000000000000000000000000000000000000000000000000000000008152506100be6000836101e460201b90919060201c565b61012081815250506100da6001826101e460201b90919060201c565b6101408181525050818051906020012060e08181525050808051906020012061010081815250504660a0818152505061011761023460201b60201c565b608081815250503073ffffffffffffffffffffffffffffffffffffffff1660c08173ffffffffffffffffffffffffffffffffffffffff16815250505050600073ffffffffffffffffffffffffffffffffffffffff168173ffffffffffffffffffffffffffffffffffffffff16036101c65760006040517f1e4fbdf70000000000000000000000000000000000000000000000000000000081526004016101bd9190610466565b60405180910390fd5b6101d58161028f60201b60201c565b5060016003819055505061095c565b6000602083511015610206576101ff8361035560201b60201c565b905061022e565b82610216836103bd60201b60201c565b600001908161022591906106d1565b5060ff60001b90505b92915050565b60007f8b73c3c69bb8fe3d512ecc4cf759cc79239f7b179b0ffacaa9a75d522b39400f60e0516101005146306040516020016102749594939291906107cb565b60405160208183030381529060405280519060200120905090565b6000600260009054906101000a900473ffffffffffffffffffffffffffffffffffffffff16905081600260006101000a81548173ffffffffffffffffffffffffffffffffffffffff021916908373ffffffffffffffffffffffffffffffffffffffff1602179055508173ffffffffffffffffffffffffffffffffffffffff168173ffffffffffffffffffffffffffffffffffffffff167f8be0079c531659141344cd1fd0a4f28419497f9722a3daafe3b4186f6b6457e060405160405180910390a35050565b600080829050601f815111156103a257826040517f305a27a900000000000000000000000000000000000000000000000000000000815260040161039991906108a3565b60405180910390fd5b8051816103ae906108f5565b60001c1760001b915050919050565b6000819050919050565b600080fd5b600073ffffffffffffffffffffffffffffffffffffffff82169050919050565b60006103f7826103cc565b9050919050565b610407816103ec565b811461041257600080fd5b50565b600081519050610424816103fe565b92915050565b6000602082840312156104405761043f6103c7565b5b600061044e84828501610415565b91505092915050565b610460816103ec565b82525050565b600060208201905061047b6000830184610457565b92915050565b600081519050919050565b7f4e487b7100000000000000000000000000000000000000000000000000000000600052604160045260246000fd5b7f4e487b7100000000000000000000000000000000000000000000000000000000600052602260045260246000fd5b6000600282049050600182168061050257607f821691505b602082108103610515576105146104bb565b5b50919050565b60008190508160005260206000209050919050565b60006020601f8301049050919050565b600082821b905092915050565b60006008830261057d7fffffffffffffffffffffffffffffffffffffffffffffffffffffffffffffffff82610540565b6105878683610540565b95508019841693508086168417925050509392505050565b6000819050919050565b6000819050919050565b60006105ce6105c96105c48461059f565b6105a9565b61059f565b9050919050565b6000819050919050565b6105e8836105b3565b6105fc6105f4826105d5565b84845461054d565b825550505050565b600090565b610611610604565b61061c8184846105df565b505050565b5b8181101561064057610635600082610609565b600181019050610622565b5050565b601f821115610685576106568161051b565b61065f84610530565b8101602085101561066e578190505b61068261067a85610530565b830182610621565b50505b505050565b600082821c905092915050565b60006106a86000198460080261068a565b1980831691505092915050565b60006106c18383610697565b9150826002028217905092915050565b6106da82610481565b67ffffffffffffffff8111156106f3576106f261048c565b5b6106fd82546104ea565b610708828285610644565b600060209050601f83116001811461073b5760008415610729578287015190505b61073385826106b5565b86555061079b565b601f1984166107498661051b565b60005b828110156107715784890151825560018201915060208501945060208101905061074c565b8683101561078e578489015161078a601f891682610697565b8355505b6001600288020188555050505b505050505050565b6000819050919050565b6107b6816107a3565b82525050565b6107c58161059f565b82525050565b600060a0820190506107e060008301886107ad565b6107ed60208301876107ad565b6107fa60408301866107ad565b61080760608301856107bc565b6108146080830184610457565b9695505050505050565b600082825260208201905092915050565b60005b8381101561084d578082015181840152602081019050610832565b60008484015250505050565b6000601f19601f8301169050919050565b600061087582610481565b61087f818561081e565b935061088f81856020860161082f565b61089881610859565b840191505092915050565b600060208201905081810360008301526108bd818461086a565b905092915050565b600081519050919050565b6000819050602082019050919050565b60006108ec82516107a3565b80915050919050565b6000610900826108c5565b8261090a846108d0565b9050610915816108e0565b92506020821015610955576109507fffffffffffffffffffffffffffffffffffffffffffffffffffffffffffffffff83602003600802610540565b831692505b5050919050565b60805160a05160c05160e051610100516101205161014051615e786109b66000396000613518015260006134dd01526000613c1501526000613bf4015260006138cb015260006139210152600061394a0152615e786000f3fe608060405234801561001057600080fd5b50600436106101375760003560e01c8063886fc067116100b8578063b5f2234d1161007c578063b5f2234d1461032e578063c887262e14610363578063e488b9d01461037f578063e8958da1146103af578063f2fde38b146103cb578063f333fe08146103e757610137565b8063886fc0671461029c5780638da5cb5b146102b85780638dc7a67f146102d6578063a185cb1b146102f2578063a594da951461031057610137565b80633658d476116100ff5780633658d476146101f257806347bc709314610222578063622c3e7a1461023e578063715018a61461026e57806384b0196e1461027857610137565b8063132a30641461013c578063185d3a9f1461016c57806320694db01461018a57806331ba1966146101a657806334ef32cb146101d6575b600080fd5b61015660048036038101906101519190613e9c565b610417565b6040516101639190613ef7565b60405180910390f35b61017461047f565b6040516101819190613f21565b60405180910390f35b6101a4600480360381019061019f9190613f3c565b610485565b005b6101c060048036038101906101bb9190613f3c565b6106df565b6040516101cd9190613ef7565b60405180910390f35b6101f060048036038101906101eb9190613f69565b6106ff565b005b61020c60048036038101906102079190613fcc565b610a1c565b6040516102199190614070565b60405180910390f35b61023c60048036038101906102379190613f3c565b610a49565b005b6102586004803603810190610253919061408b565b610d83565b6040516102659190613f21565b60405180910390f35b6102766111d4565b005b6102806111e8565b6040516102939796959493929190614272565b60405180910390f35b6102b660048036038101906102b19190613f69565b611292565b005b6102c0611f41565b6040516102cd91906142f6565b60405180910390f35b6102f060048036038101906102eb9190614464565b611f6b565b005b6102fa6125f7565b6040516103079190613f21565b60405180910390f35b6103186125fd565b6040516103259190614604565b60405180910390f35b61034860048036038101906103439190613f69565b61268b565b60405161035a9695949392919061469c565b60405180910390f35b61037d60048036038101906103789190613f69565b612745565b005b61039960048036038101906103949190613f3c565b6127d1565b6040516103a69190613f21565b60405180910390f35b6103c960048036038101906103c491906146fd565b612b2a565b005b6103e560048036038101906103e09190613f3c565b612f4f565b005b61040160048036038101906103fc9190613fcc565b612fd5565b60405161040e919061495c565b60405180910390f35b6000600c600084815260200190815260200160002060008373ffffffffffffffffffffffffffffffffffffffff1673ffffffffffffffffffffffffffffffffffffffff16815260200190815260200160002060009054906101000a900460ff16905092915050565b600a5481565b61048d613387565b600073ffffffffffffffffffffffffffffffffffffffff168173ffffffffffffffffffffffffffffffffffffffff16036104fc576040517f08c379a00000000000000000000000000000000000000000000000000000000081526004016104f3906149ca565b60405180910390fd5b600660008273ffffffffffffffffffffffffffffffffffffffff1673ffffffffffffffffffffffffffffffffffffffff16815260200190815260200160002060009054906101000a900460ff1615610589576040517f08c379a000000000000000000000000000000000000000000000000000000000815260040161058090614a36565b60405180910390fd5b6001600660008373ffffffffffffffffffffffffffffffffffffffff1673ffffffffffffffffffffffffffffffffffffffff16815260200190815260200160002060006101000a81548160ff0219169083151502179055506007819080600181540180825580915050600190039060005260206000200160009091909190916101000a81548173ffffffffffffffffffffffffffffffffffffffff021916908373ffffffffffffffffffffffffffffffffffffffff160217905550600780549050600860008373ffffffffffffffffffffffffffffffffffffffff1673ffffffffffffffffffffffffffffffffffffffff168152602001908152602001600020819055508073ffffffffffffffffffffffffffffffffffffffff167f2da8853a4b9cb460e0d55b3ebaf4233e43c285958527a4dc0b67aa4b71b91af860016040516106d49190613ef7565b60405180910390a250565b60066020528060005260406000206000915054906101000a900460ff1681565b600660003373ffffffffffffffffffffffffffffffffffffffff1673ffffffffffffffffffffffffffffffffffffffff16815260200190815260200160002060009054906101000a900460ff1661078b576040517f08c379a000000000000000000000000000000000000000000000000000000000815260040161078290614aa2565b60405180910390fd5b6000600b60008381526020019081526020016000209050600060028111156107b6576107b5613ff9565b5b8160000160009054906101000a900460ff1660028111156107da576107d9613ff9565b5b0361081a576040517f08c379a000000000000000000000000000000000000000000000000000000000815260040161081190614b0e565b60405180910390fd5b8060010160189054906101000a900460ff161561086c576040517f08c379a000000000000000000000000000000000000000000000000000000000815260040161086390614b7a565b60405180910390fd5b600c600083815260200190815260200160002060003373ffffffffffffffffffffffffffffffffffffffff1673ffffffffffffffffffffffffffffffffffffffff16815260200190815260200160002060009054906101000a900460ff161561090a576040517f08c379a000000000000000000000000000000000000000000000000000000000815260040161090190614be6565b60405180910390fd5b6001600c600084815260200190815260200160002060003373ffffffffffffffffffffffffffffffffffffffff1673ffffffffffffffffffffffffffffffffffffffff16815260200190815260200160002060006101000a81548160ff02191690831515021790555060018160010160148282829054906101000a900463ffffffff166109979190614c35565b92506101000a81548163ffffffff021916908363ffffffff1602179055503373ffffffffffffffffffffffffffffffffffffffff16827fd1542feab27e66d6ac9a50b5fee1d999c9750a5bbafddddf814810ffa7cf74ae8360010160149054906101000a900463ffffffff16604051610a109190614c6d565b60405180910390a35050565b600060046000838152602001908152602001600020600201601c9054906101000a900460ff169050919050565b610a51613387565b600660008273ffffffffffffffffffffffffffffffffffffffff1673ffffffffffffffffffffffffffffffffffffffff16815260200190815260200160002060009054906101000a900460ff16610add576040517f08c379a0000000000000000000000000000000000000000000000000000000008152600401610ad490614cd4565b60405180910390fd5b6000600660008373ffffffffffffffffffffffffffffffffffffffff1673ffffffffffffffffffffffffffffffffffffffff16815260200190815260200160002060006101000a81548160ff0219169083151502179055506000600860008373ffffffffffffffffffffffffffffffffffffffff1673ffffffffffffffffffffffffffffffffffffffff16815260200190815260200160002054905060008114610d30576000600182610b909190614cf4565b905060006001600780549050610ba69190614cf4565b9050808214610ca157600060078281548110610bc557610bc4614d28565b5b9060005260206000200160009054906101000a900473ffffffffffffffffffffffffffffffffffffffff1690508060078481548110610c0757610c06614d28565b5b9060005260206000200160006101000a81548173ffffffffffffffffffffffffffffffffffffffff021916908373ffffffffffffffffffffffffffffffffffffffff160217905550600183610c5c9190614d57565b600860008373ffffffffffffffffffffffffffffffffffffffff1673ffffffffffffffffffffffffffffffffffffffff16815260200190815260200160002081905550505b6007805480610cb357610cb2614d8b565b5b6001900381819060005260206000200160006101000a81549073ffffffffffffffffffffffffffffffffffffffff021916905590556000600860008673ffffffffffffffffffffffffffffffffffffffff1673ffffffffffffffffffffffffffffffffffffffff1681526020019081526020016000208190555050505b8173ffffffffffffffffffffffffffffffffffffffff167f2da8853a4b9cb460e0d55b3ebaf4233e43c285958527a4dc0b67aa4b71b91af86000604051610d779190613ef7565b60405180910390a25050565b6000610d8d613387565b600660008473ffffffffffffffffffffffffffffffffffffffff1673ffffffffffffffffffffffffffffffffffffffff16815260200190815260200160002060009054906101000a900460ff16610e19576040517f08c379a0000000000000000000000000000000000000000000000000000000008152600401610e1090614cd4565b60405180910390fd5b600073ffffffffffffffffffffffffffffffffffffffff168273ffffffffffffffffffffffffffffffffffffffff1603610e88576040517f08c379a0000000000000000000000000000000000000000000000000000000008152600401610e7f906149ca565b60405180910390fd5b600660008373ffffffffffffffffffffffffffffffffffffffff1673ffffffffffffffffffffffffffffffffffffffff16815260200190815260200160002060009054906101000a900460ff1615610f15576040517f08c379a0000000000000000000000000000000000000000000000000000000008152600401610f0c90614a36565b60405180910390fd5b8173ffffffffffffffffffffffffffffffffffffffff168373ffffffffffffffffffffffffffffffffffffffff1603610f83576040517f08c379a0000000000000000000000000000000000000000000000000000000008152600401610f7a90614e06565b60405180910390fd5b600a6000815480929190610f9690614e26565b9190505590506040518060c00160405280600280811115610fba57610fb9613ff9565b5b81526020018473ffffffffffffffffffffffffffffffffffffffff1681526020018373ffffffffffffffffffffffffffffffffffffffff168152602001600063ffffffff1681526020016000151581526020014267ffffffffffffffff16815250600b600083815260200190815260200160002060008201518160000160006101000a81548160ff0219169083600281111561105957611058613ff9565b5b021790555060208201518160000160016101000a81548173ffffffffffffffffffffffffffffffffffffffff021916908373ffffffffffffffffffffffffffffffffffffffff16021790555060408201518160010160006101000a81548173ffffffffffffffffffffffffffffffffffffffff021916908373ffffffffffffffffffffffffffffffffffffffff16021790555060608201518160010160146101000a81548163ffffffff021916908363ffffffff16021790555060808201518160010160186101000a81548160ff02191690831515021790555060a08201518160020160006101000a81548167ffffffffffffffff021916908367ffffffffffffffff1602179055509050508173ffffffffffffffffffffffffffffffffffffffff168373ffffffffffffffffffffffffffffffffffffffff16827f54a8f7d4d345108a078f81d9afe7f357383632f7e97e1a366ea07ccf375bb3286002426040516111c6929190614e6e565b60405180910390a492915050565b6111dc613387565b6111e6600061340e565b565b6000606080600080600060606111fc6134d4565b61120461350f565b46306000801b600067ffffffffffffffff81111561122557611224614e97565b5b6040519080825280602002602001820160405280156112535781602001602082028036833780820191505090505b507f0f00000000000000000000000000000000000000000000000000000000000000959493929190965096509650965096509650965090919293949596565b61129a613387565b6000600b60008381526020019081526020016000209050600060028111156112c5576112c4613ff9565b5b8160000160009054906101000a900460ff1660028111156112e9576112e8613ff9565b5b03611329576040517f08c379a000000000000000000000000000000000000000000000000000000000815260040161132090614b0e565b60405180910390fd5b8060010160189054906101000a900460ff161561137b576040517f08c379a000000000000000000000000000000000000000000000000000000000815260040161137290614b7a565b60405180910390fd5b6009548160010160149054906101000a900463ffffffff1663ffffffff1610156113da576040517f08c379a00000000000000000000000000000000000000000000000000000000081526004016113d190614f12565b60405180910390fd5b60018160010160186101000a81548160ff0219169083151502179055506001600281111561140b5761140a613ff9565b5b8160000160009054906101000a900460ff16600281111561142f5761142e613ff9565b5b0361176057600073ffffffffffffffffffffffffffffffffffffffff168160010160009054906101000a900473ffffffffffffffffffffffffffffffffffffffff1673ffffffffffffffffffffffffffffffffffffffff16036114c7576040517f08c379a00000000000000000000000000000000000000000000000000000000081526004016114be906149ca565b60405180910390fd5b600660008260010160009054906101000a900473ffffffffffffffffffffffffffffffffffffffff1673ffffffffffffffffffffffffffffffffffffffff1673ffffffffffffffffffffffffffffffffffffffff16815260200190815260200160002060009054906101000a900460ff1615611578576040517f08c379a000000000000000000000000000000000000000000000000000000000815260040161156f90614a36565b60405180910390fd5b6001600660008360010160009054906101000a900473ffffffffffffffffffffffffffffffffffffffff1673ffffffffffffffffffffffffffffffffffffffff1673ffffffffffffffffffffffffffffffffffffffff16815260200190815260200160002060006101000a81548160ff02191690831515021790555060078160010160009054906101000a900473ffffffffffffffffffffffffffffffffffffffff169080600181540180825580915050600190039060005260206000200160009091909190916101000a81548173ffffffffffffffffffffffffffffffffffffffff021916908373ffffffffffffffffffffffffffffffffffffffff160217905550600780549050600860008360010160009054906101000a900473ffffffffffffffffffffffffffffffffffffffff1673ffffffffffffffffffffffffffffffffffffffff1673ffffffffffffffffffffffffffffffffffffffff168152602001908152602001600020819055508060010160009054906101000a900473ffffffffffffffffffffffffffffffffffffffff1673ffffffffffffffffffffffffffffffffffffffff167f2da8853a4b9cb460e0d55b3ebaf4233e43c285958527a4dc0b67aa4b71b91af860016040516117539190613ef7565b60405180910390a2611ea8565b60028081111561177357611772613ff9565b5b8160000160009054906101000a900460ff16600281111561179757611796613ff9565b5b03611ea757600660008260000160019054906101000a900473ffffffffffffffffffffffffffffffffffffffff1673ffffffffffffffffffffffffffffffffffffffff1673ffffffffffffffffffffffffffffffffffffffff16815260200190815260200160002060009054906101000a900460ff1661184c576040517f08c379a000000000000000000000000000000000000000000000000000000000815260040161184390614cd4565b60405180910390fd5b600073ffffffffffffffffffffffffffffffffffffffff168160010160009054906101000a900473ffffffffffffffffffffffffffffffffffffffff1673ffffffffffffffffffffffffffffffffffffffff16036118df576040517f08c379a00000000000000000000000000000000000000000000000000000000081526004016118d6906149ca565b60405180910390fd5b600660008260010160009054906101000a900473ffffffffffffffffffffffffffffffffffffffff1673ffffffffffffffffffffffffffffffffffffffff1673ffffffffffffffffffffffffffffffffffffffff16815260200190815260200160002060009054906101000a900460ff1615611990576040517f08c379a000000000000000000000000000000000000000000000000000000000815260040161198790614a36565b60405180910390fd5b6000600660008360000160019054906101000a900473ffffffffffffffffffffffffffffffffffffffff1673ffffffffffffffffffffffffffffffffffffffff1673ffffffffffffffffffffffffffffffffffffffff16815260200190815260200160002060006101000a81548160ff0219169083151502179055506000600860008360000160019054906101000a900473ffffffffffffffffffffffffffffffffffffffff1673ffffffffffffffffffffffffffffffffffffffff1673ffffffffffffffffffffffffffffffffffffffff16815260200190815260200160002054905060008114611c4f576000600182611a8b9190614cf4565b905060006001600780549050611aa19190614cf4565b9050808214611b9c57600060078281548110611ac057611abf614d28565b5b9060005260206000200160009054906101000a900473ffffffffffffffffffffffffffffffffffffffff1690508060078481548110611b0257611b01614d28565b5b9060005260206000200160006101000a81548173ffffffffffffffffffffffffffffffffffffffff021916908373ffffffffffffffffffffffffffffffffffffffff160217905550600183611b579190614d57565b600860008373ffffffffffffffffffffffffffffffffffffffff1673ffffffffffffffffffffffffffffffffffffffff16815260200190815260200160002081905550505b6007805480611bae57611bad614d8b565b5b6001900381819060005260206000200160006101000a81549073ffffffffffffffffffffffffffffffffffffffff021916905590556000600860008660000160019054906101000a900473ffffffffffffffffffffffffffffffffffffffff1673ffffffffffffffffffffffffffffffffffffffff1673ffffffffffffffffffffffffffffffffffffffff1681526020019081526020016000208190555050505b508060000160019054906101000a900473ffffffffffffffffffffffffffffffffffffffff1673ffffffffffffffffffffffffffffffffffffffff167f2da8853a4b9cb460e0d55b3ebaf4233e43c285958527a4dc0b67aa4b71b91af86000604051611cbb9190613ef7565b60405180910390a26001600660008360010160009054906101000a900473ffffffffffffffffffffffffffffffffffffffff1673ffffffffffffffffffffffffffffffffffffffff1673ffffffffffffffffffffffffffffffffffffffff16815260200190815260200160002060006101000a81548160ff02191690831515021790555060078160010160009054906101000a900473ffffffffffffffffffffffffffffffffffffffff169080600181540180825580915050600190039060005260206000200160009091909190916101000a81548173ffffffffffffffffffffffffffffffffffffffff021916908373ffffffffffffffffffffffffffffffffffffffff160217905550600780549050600860008360010160009054906101000a900473ffffffffffffffffffffffffffffffffffffffff1673ffffffffffffffffffffffffffffffffffffffff1673ffffffffffffffffffffffffffffffffffffffff168152602001908152602001600020819055508060010160009054906101000a900473ffffffffffffffffffffffffffffffffffffffff1673ffffffffffffffffffffffffffffffffffffffff167f2da8853a4b9cb460e0d55b3ebaf4233e43c285958527a4dc0b67aa4b71b91af86001604051611e9e9190613ef7565b60405180910390a25b5b817f43210514c96d5149262de074f1c8fbaefe269ea87fd03e40f98e6dc9b85c99a98260000160009054906101000a900460ff168360000160019054906101000a900473ffffffffffffffffffffffffffffffffffffffff168460010160009054906101000a900473ffffffffffffffffffffffffffffffffffffffff16604051611f3593929190614f32565b60405180910390a25050565b6000600260009054906101000a900473ffffffffffffffffffffffffffffffffffffffff16905090565b611f7361354a565b600660008673ffffffffffffffffffffffffffffffffffffffff1673ffffffffffffffffffffffffffffffffffffffff16815260200190815260200160002060009054906101000a900460ff16611fff576040517f08c379a0000000000000000000000000000000000000000000000000000000008152600401611ff690614aa2565b60405180910390fd5b6000600281111561201357612012613ff9565b5b600460008b8152602001908152602001600020600201601c9054906101000a900460ff16600281111561204957612048613ff9565b5b14612089576040517f08c379a000000000000000000000000000000000000000000000000000000000815260040161208090614fb5565b60405180910390fd5b600087879050116120cf576040517f08c379a00000000000000000000000000000000000000000000000000000000081526004016120c690615021565b60405180910390fd5b60008467ffffffffffffffff161161211c576040517f08c379a00000000000000000000000000000000000000000000000000000000081526004016121139061508d565b60405180910390fd5b60008886604051602001612131929190615116565b6040516020818303038152906040528051906020012090506005600082815260200190815260200160002060009054906101000a900460ff16156121aa576040517f08c379a00000000000000000000000000000000000000000000000000000000081526004016121a19061518e565b60405180910390fd5b600089858846896040516020016121c59594939291906151bd565b6040516020818303038152906040528051906020012090508a811461221f576040517f08c379a00000000000000000000000000000000000000000000000000000000081526004016122169061525c565b60405180910390fd5b60006122328c8c8c8c8c8c8c8c8c613590565b90508773ffffffffffffffffffffffffffffffffffffffff168173ffffffffffffffffffffffffffffffffffffffff16146122a2576040517f08c379a0000000000000000000000000000000000000000000000000000000008152600401612299906152c8565b60405180910390fd5b6040518061014001604052808c81526020018b8b8080601f016020809104026020016040519081016040528093929190818152602001838380828437600081840152601f19601f8201169050808301925050505050505081526020018973ffffffffffffffffffffffffffffffffffffffff1681526020018867ffffffffffffffff1681526020016001600281111561233e5761233d613ff9565b5b8152602001604051806020016040528060008152508152602001600067ffffffffffffffff16815260200186868080601f016020809104026020016040519081016040528093929190818152602001838380828437600081840152601f19601f820116905080830192505050505050508152602001876fffffffffffffffffffffffffffffffff1916815260200160405180602001604052806000815250815250600460008e815260200190815260200160002060008201518160000155602082015181600101908161241191906154f4565b5060408201518160020160006101000a81548173ffffffffffffffffffffffffffffffffffffffff021916908373ffffffffffffffffffffffffffffffffffffffff16021790555060608201518160020160146101000a81548167ffffffffffffffff021916908367ffffffffffffffff160217905550608082015181600201601c6101000a81548160ff021916908360028111156124b3576124b2613ff9565b5b021790555060a08201518160030190816124cd91906154f4565b5060c08201518160040160006101000a81548167ffffffffffffffff021916908367ffffffffffffffff16021790555060e08201518160050190816125129190615621565b506101008201518160060160006101000a8154816fffffffffffffffffffffffffffffffff021916908360801c021790555061012082015181600701908161255a9190615621565b5090505060016005600085815260200190815260200160002060006101000a81548160ff0219169083151502179055508773ffffffffffffffffffffffffffffffffffffffff168c7f9785a0bd0b3fb086ef7cae9dd038e51a3917910c3c4fba7caa0e0c63bc393b658d8d8d8c8c6040516125d995949392919061572f565b60405180910390a35050506125ec613677565b505050505050505050565b60095481565b6060600780548060200260200160405190810160405280929190818152602001828054801561268157602002820191906000526020600020905b8160009054906101000a900473ffffffffffffffffffffffffffffffffffffffff1673ffffffffffffffffffffffffffffffffffffffff1681526020019060010190808311612637575b5050505050905090565b600b6020528060005260406000206000915090508060000160009054906101000a900460ff16908060000160019054906101000a900473ffffffffffffffffffffffffffffffffffffffff16908060010160009054906101000a900473ffffffffffffffffffffffffffffffffffffffff16908060010160149054906101000a900463ffffffff16908060010160189054906101000a900460ff16908060020160009054906101000a900467ffffffffffffffff16905086565b61274d613387565b60008111612790576040517f08c379a0000000000000000000000000000000000000000000000000000000008152600401612787906157c9565b60405180910390fd5b806009819055507f6c09b6c73bd3f6be2ff04ca4cecf293730dc0ea531e112712bcd2f6cc69e5d59816040516127c69190613f21565b60405180910390a150565b60006127db613387565b600073ffffffffffffffffffffffffffffffffffffffff168273ffffffffffffffffffffffffffffffffffffffff160361284a576040517f08c379a0000000000000000000000000000000000000000000000000000000008152600401612841906149ca565b60405180910390fd5b600660008373ffffffffffffffffffffffffffffffffffffffff1673ffffffffffffffffffffffffffffffffffffffff16815260200190815260200160002060009054906101000a900460ff16156128d7576040517f08c379a00000000000000000000000000000000000000000000000000000000081526004016128ce90614a36565b60405180910390fd5b600a60008154809291906128ea90614e26565b9190505590506040518060c001604052806001600281111561290f5761290e613ff9565b5b8152602001600073ffffffffffffffffffffffffffffffffffffffff1681526020018373ffffffffffffffffffffffffffffffffffffffff168152602001600063ffffffff1681526020016000151581526020014267ffffffffffffffff16815250600b600083815260200190815260200160002060008201518160000160006101000a81548160ff021916908360028111156129af576129ae613ff9565b5b021790555060208201518160000160016101000a81548173ffffffffffffffffffffffffffffffffffffffff021916908373ffffffffffffffffffffffffffffffffffffffff16021790555060408201518160010160006101000a81548173ffffffffffffffffffffffffffffffffffffffff021916908373ffffffffffffffffffffffffffffffffffffffff16021790555060608201518160010160146101000a81548163ffffffff021916908363ffffffff16021790555060808201518160010160186101000a81548160ff02191690831515021790555060a08201518160020160006101000a81548167ffffffffffffffff021916908367ffffffffffffffff1602179055509050508173ffffffffffffffffffffffffffffffffffffffff16600073ffffffffffffffffffffffffffffffffffffffff16827f54a8f7d4d345108a078f81d9afe7f357383632f7e97e1a366ea07ccf375bb328600142604051612b1d929190614e6e565b60405180910390a4919050565b612b3261354a565b600060046000878152602001908152602001600020905060016002811115612b5d57612b5c613ff9565b5b81600201601c9054906101000a900460ff166002811115612b8157612b80613ff9565b5b14612bc1576040517f08c379a0000000000000000000000000000000000000000000000000000000008152600401612bb890615835565b60405180910390fd5b612bc9611f41565b73ffffffffffffffffffffffffffffffffffffffff163373ffffffffffffffffffffffffffffffffffffffff161480612c5157508060020160009054906101000a900473ffffffffffffffffffffffffffffffffffffffff1673ffffffffffffffffffffffffffffffffffffffff163373ffffffffffffffffffffffffffffffffffffffff16145b612c90576040517f08c379a0000000000000000000000000000000000000000000000000000000008152600401612c87906158a1565b60405180910390fd5b600085859050905060008111612cdb576040517f08c379a0000000000000000000000000000000000000000000000000000000008152600401612cd29061590d565b60405180910390fd5b610100811115612d20576040517f08c379a0000000000000000000000000000000000000000000000000000000008152600401612d1790615979565b60405180910390fd5b60008484905011612d66576040517f08c379a0000000000000000000000000000000000000000000000000000000008152600401612d5d906159e5565b60405180910390fd5b6000612d9a8888888660020160009054906101000a900473ffffffffffffffffffffffffffffffffffffffff168989613681565b90508260020160009054906101000a900473ffffffffffffffffffffffffffffffffffffffff1673ffffffffffffffffffffffffffffffffffffffff168173ffffffffffffffffffffffffffffffffffffffff1614612e2e576040517f08c379a0000000000000000000000000000000000000000000000000000000008152600401612e2590615a51565b60405180910390fd5b600283600201601c6101000a81548160ff02191690836002811115612e5657612e55613ff9565b5b02179055508686846003019182612e6e929190615a7c565b50428360040160006101000a81548167ffffffffffffffff021916908367ffffffffffffffff1602179055508484846007019182612ead929190615b57565b508260020160009054906101000a900473ffffffffffffffffffffffffffffffffffffffff1673ffffffffffffffffffffffffffffffffffffffff16887f865d29fb1978285be299cb928643a1123da5a6814911af0418546955536749b989898760040160009054906101000a900467ffffffffffffffff16604051612f3593929190615c27565b60405180910390a3505050612f48613677565b5050505050565b612f57613387565b600073ffffffffffffffffffffffffffffffffffffffff168173ffffffffffffffffffffffffffffffffffffffff1603612fc95760006040517f1e4fbdf7000000000000000000000000000000000000000000000000000000008152600401612fc091906142f6565b60405180910390fd5b612fd28161340e565b50565b612fdd613d59565b60046000838152602001908152602001600020604051806101400160405290816000820154815260200160018201805461301690615317565b80601f016020809104026020016040519081016040528092919081815260200182805461304290615317565b801561308f5780601f106130645761010080835404028352916020019161308f565b820191906000526020600020905b81548152906001019060200180831161307257829003601f168201915b505050505081526020016002820160009054906101000a900473ffffffffffffffffffffffffffffffffffffffff1673ffffffffffffffffffffffffffffffffffffffff1673ffffffffffffffffffffffffffffffffffffffff1681526020016002820160149054906101000a900467ffffffffffffffff1667ffffffffffffffff1667ffffffffffffffff16815260200160028201601c9054906101000a900460ff16600281111561314557613144613ff9565b5b600281111561315757613156613ff9565b5b815260200160038201805461316b90615317565b80601f016020809104026020016040519081016040528092919081815260200182805461319790615317565b80156131e45780601f106131b9576101008083540402835291602001916131e4565b820191906000526020600020905b8154815290600101906020018083116131c757829003601f168201915b505050505081526020016004820160009054906101000a900467ffffffffffffffff1667ffffffffffffffff1667ffffffffffffffff16815260200160058201805461322f90615317565b80601f016020809104026020016040519081016040528092919081815260200182805461325b90615317565b80156132a85780601f1061327d576101008083540402835291602001916132a8565b820191906000526020600020905b81548152906001019060200180831161328b57829003601f168201915b505050505081526020016006820160009054906101000a900460801b6fffffffffffffffffffffffffffffffff19166fffffffffffffffffffffffffffffffff191681526020016007820180546132fe90615317565b80601f016020809104026020016040519081016040528092919081815260200182805461332a90615317565b80156133775780601f1061334c57610100808354040283529160200191613377565b820191906000526020600020905b81548152906001019060200180831161335a57829003601f168201915b5050505050815250509050919050565b61338f613755565b73ffffffffffffffffffffffffffffffffffffffff166133ad611f41565b73ffffffffffffffffffffffffffffffffffffffff161461340c576133d0613755565b6040517f118cdaa700000000000000000000000000000000000000000000000000000000815260040161340391906142f6565b60405180910390fd5b565b6000600260009054906101000a900473ffffffffffffffffffffffffffffffffffffffff16905081600260006101000a81548173ffffffffffffffffffffffffffffffffffffffff021916908373ffffffffffffffffffffffffffffffffffffffff1602179055508173ffffffffffffffffffffffffffffffffffffffff168173ffffffffffffffffffffffffffffffffffffffff167f8be0079c531659141344cd1fd0a4f28419497f9722a3daafe3b4186f6b6457e060405160405180910390a35050565b606061350a60007f000000000000000000000000000000000000000000000000000000000000000061375d90919063ffffffff16565b905090565b606061354560017f000000000000000000000000000000000000000000000000000000000000000061375d90919063ffffffff16565b905090565b600260035403613586576040517f3ee5aeb500000000000000000000000000000000000000000000000000000000815260040160405180910390fd5b6002600381905550565b6000807f4b562eb251233df69234f47d5cfa0779ac7d5aeb3c235846080853cafdbff6458b8b8b8b6040516135c6929190615c89565b60405180910390208a8a67ffffffffffffffff16468b6040516020016135f3989796959493929190615ca2565b60405160208183030381529060405280519060200120905060006136168261380d565b90506136668186868080601f016020809104026020016040519081016040528093929190818152602001838380828437600081840152601f19601f82011690508083019250505050505050613827565b925050509998505050505050505050565b6001600381905550565b6000807f59ae120bac40e16a778095365c8b89a5c41f865efb74250d04264993f2d9ef5c8888886040516136b6929190615c89565b604051809103902087466040516020016136d4959493929190615d20565b60405160208183030381529060405280519060200120905060006136f78261380d565b90506137478186868080601f016020809104026020016040519081016040528093929190818152602001838380828437600081840152601f19601f82011690508083019250505050505050613827565b925050509695505050505050565b600033905090565b606060ff60001b831461377a5761377383613853565b9050613807565b81805461378690615317565b80601f01602080910402602001604051908101604052809291908181526020018280546137b290615317565b80156137ff5780601f106137d4576101008083540402835291602001916137ff565b820191906000526020600020905b8154815290600101906020018083116137e257829003601f168201915b505050505090505b92915050565b600061382061381a6138c7565b8361397e565b9050919050565b60008060008061383786866139bf565b9250925092506138478282613a1b565b82935050505092915050565b6060600061386083613b7f565b90506000602067ffffffffffffffff81111561387f5761387e614e97565b5b6040519080825280601f01601f1916602001820160405280156138b15781602001600182028036833780820191505090505b5090508181528360208201528092505050919050565b60007f000000000000000000000000000000000000000000000000000000000000000073ffffffffffffffffffffffffffffffffffffffff163073ffffffffffffffffffffffffffffffffffffffff1614801561394357507f000000000000000000000000000000000000000000000000000000000000000046145b15613970577f0000000000000000000000000000000000000000000000000000000000000000905061397b565b613978613bcf565b90505b90565b60006040517f190100000000000000000000000000000000000000000000000000000000000081528360028201528260228201526042812091505092915050565b60008060006041845103613a045760008060006020870151925060408701519150606087015160001a90506139f688828585613c65565b955095509550505050613a14565b60006002855160001b9250925092505b9250925092565b60006003811115613a2f57613a2e613ff9565b5b826003811115613a4257613a41613ff9565b5b0315613b7b5760016003811115613a5c57613a5b613ff9565b5b826003811115613a6f57613a6e613ff9565b5b03613aa6576040517ff645eedf00000000000000000000000000000000000000000000000000000000815260040160405180910390fd5b60026003811115613aba57613ab9613ff9565b5b826003811115613acd57613acc613ff9565b5b03613b12578060001c6040517ffce698f7000000000000000000000000000000000000000000000000000000008152600401613b099190613f21565b60405180910390fd5b600380811115613b2557613b24613ff9565b5b826003811115613b3857613b37613ff9565b5b03613b7a57806040517fd78bce0c000000000000000000000000000000000000000000000000000000008152600401613b719190615d73565b60405180910390fd5b5b5050565b60008060ff8360001c169050601f811115613bc6576040517fb3512b0c00000000000000000000000000000000000000000000000000000000815260040160405180910390fd5b80915050919050565b60007f8b73c3c69bb8fe3d512ecc4cf759cc79239f7b179b0ffacaa9a75d522b39400f7f00000000000000000000000000000000000000000000000000000000000000007f00000000000000000000000000000000000000000000000000000000000000004630604051602001613c4a959493929190615d8e565b60405160208183030381529060405280519060200120905090565b60008060007f7fffffffffffffffffffffffffffffff5d576e7357a4501ddfe92f46681b20a08460001c1115613ca5576000600385925092509250613d4f565b600060018888888860405160008152602001604052604051613cca9493929190615dfd565b6020604051602081039080840390855afa158015613cec573d6000803e3d6000fd5b505050602060405103519050600073ffffffffffffffffffffffffffffffffffffffff168173ffffffffffffffffffffffffffffffffffffffff1603613d4057600060016000801b93509350935050613d4f565b8060008060001b935093509350505b9450945094915050565b6040518061014001604052806000801916815260200160608152602001600073ffffffffffffffffffffffffffffffffffffffff168152602001600067ffffffffffffffff16815260200160006002811115613db857613db7613ff9565b5b815260200160608152602001600067ffffffffffffffff1681526020016060815260200160006fffffffffffffffffffffffffffffffff19168152602001606081525090565b600080fd5b600080fd5b6000819050919050565b613e1b81613e08565b8114613e2657600080fd5b50565b600081359050613e3881613e12565b92915050565b600073ffffffffffffffffffffffffffffffffffffffff82169050919050565b6000613e6982613e3e565b9050919050565b613e7981613e5e565b8114613e8457600080fd5b50565b600081359050613e9681613e70565b92915050565b60008060408385031215613eb357613eb2613dfe565b5b6000613ec185828601613e29565b9250506020613ed285828601613e87565b9150509250929050565b60008115159050919050565b613ef181613edc565b82525050565b6000602082019050613f0c6000830184613ee8565b92915050565b613f1b81613e08565b82525050565b6000602082019050613f366000830184613f12565b92915050565b600060208284031215613f5257613f51613dfe565b5b6000613f6084828501613e87565b91505092915050565b600060208284031215613f7f57613f7e613dfe565b5b6000613f8d84828501613e29565b91505092915050565b6000819050919050565b613fa981613f96565b8114613fb457600080fd5b50565b600081359050613fc681613fa0565b92915050565b600060208284031215613fe257613fe1613dfe565b5b6000613ff084828501613fb7565b91505092915050565b7f4e487b7100000000000000000000000000000000000000000000000000000000600052602160045260246000fd5b6003811061403957614038613ff9565b5b50565b600081905061404a82614028565b919050565b600061405a8261403c565b9050919050565b61406a8161404f565b82525050565b60006020820190506140856000830184614061565b92915050565b600080604083850312156140a2576140a1613dfe565b5b60006140b085828601613e87565b92505060206140c185828601613e87565b9150509250929050565b60007fff0000000000000000000000000000000000000000000000000000000000000082169050919050565b614100816140cb565b82525050565b600081519050919050565b600082825260208201905092915050565b60005b83811015614140578082015181840152602081019050614125565b60008484015250505050565b6000601f19601f8301169050919050565b600061416882614106565b6141728185614111565b9350614182818560208601614122565b61418b8161414c565b840191505092915050565b61419f81613e5e565b82525050565b6141ae81613f96565b82525050565b600081519050919050565b600082825260208201905092915050565b6000819050602082019050919050565b6141e981613e08565b82525050565b60006141fb83836141e0565b60208301905092915050565b6000602082019050919050565b600061421f826141b4565b61422981856141bf565b9350614234836141d0565b8060005b8381101561426557815161424c88826141ef565b975061425783614207565b925050600181019050614238565b5085935050505092915050565b600060e082019050614287600083018a6140f7565b8181036020830152614299818961415d565b905081810360408301526142ad818861415d565b90506142bc6060830187613f12565b6142c96080830186614196565b6142d660a08301856141a5565b81810360c08301526142e88184614214565b905098975050505050505050565b600060208201905061430b6000830184614196565b92915050565b600080fd5b600080fd5b600080fd5b60008083601f84011261433657614335614311565b5b8235905067ffffffffffffffff81111561435357614352614316565b5b60208301915083600182028301111561436f5761436e61431b565b5b9250929050565b600067ffffffffffffffff82169050919050565b61439381614376565b811461439e57600080fd5b50565b6000813590506143b08161438a565b92915050565b60007fffffffffffffffffffffffffffffffff0000000000000000000000000000000082169050919050565b6143eb816143b6565b81146143f657600080fd5b50565b600081359050614408816143e2565b92915050565b60008083601f84011261442457614423614311565b5b8235905067ffffffffffffffff81111561444157614440614316565b5b60208301915083600182028301111561445d5761445c61431b565b5b9250929050565b600080600080600080600080600060e08a8c03121561448657614485613dfe565b5b60006144948c828d01613fb7565b99505060206144a58c828d01613fb7565b98505060408a013567ffffffffffffffff8111156144c6576144c5613e03565b5b6144d28c828d01614320565b975097505060606144e58c828d01613e87565b95505060806144f68c828d016143a1565b94505060a06145078c828d016143f9565b93505060c08a013567ffffffffffffffff81111561452857614527613e03565b5b6145348c828d0161440e565b92509250509295985092959850929598565b600081519050919050565b600082825260208201905092915050565b6000819050602082019050919050565b61457b81613e5e565b82525050565b600061458d8383614572565b60208301905092915050565b6000602082019050919050565b60006145b182614546565b6145bb8185614551565b93506145c683614562565b8060005b838110156145f75781516145de8882614581565b97506145e983614599565b9250506001810190506145ca565b5085935050505092915050565b6000602082019050818103600083015261461e81846145a6565b905092915050565b6003811061463757614636613ff9565b5b50565b600081905061464882614626565b919050565b60006146588261463a565b9050919050565b6146688161464d565b82525050565b600063ffffffff82169050919050565b6146878161466e565b82525050565b61469681614376565b82525050565b600060c0820190506146b1600083018961465f565b6146be6020830188614196565b6146cb6040830187614196565b6146d8606083018661467e565b6146e56080830185613ee8565b6146f260a083018461468d565b979650505050505050565b60008060008060006060868803121561471957614718613dfe565b5b600061472788828901613fb7565b955050602086013567ffffffffffffffff81111561474857614747613e03565b5b61475488828901614320565b9450945050604086013567ffffffffffffffff81111561477757614776613e03565b5b6147838882890161440e565b92509250509295509295909350565b61479b81613f96565b82525050565b600082825260208201905092915050565b60006147bd82614106565b6147c781856147a1565b93506147d7818560208601614122565b6147e08161414c565b840191505092915050565b6147f481614376565b82525050565b6148038161404f565b82525050565b600081519050919050565b600082825260208201905092915050565b600061483082614809565b61483a8185614814565b935061484a818560208601614122565b6148538161414c565b840191505092915050565b614867816143b6565b82525050565b6000610140830160008301516148866000860182614792565b506020830151848203602086015261489e82826147b2565b91505060408301516148b36040860182614572565b5060608301516148c660608601826147eb565b5060808301516148d960808601826147fa565b5060a083015184820360a08601526148f182826147b2565b91505060c083015161490660c08601826147eb565b5060e083015184820360e086015261491e8282614825565b91505061010083015161493561010086018261485e565b5061012083015184820361012086015261494f8282614825565b9150508091505092915050565b60006020820190508181036000830152614976818461486d565b905092915050565b7f497373756572207a65726f000000000000000000000000000000000000000000600082015250565b60006149b4600b83614111565b91506149bf8261497e565b602082019050919050565b600060208201905081810360008301526149e3816149a7565b9050919050565b7f416c726561647920697373756572000000000000000000000000000000000000600082015250565b6000614a20600e83614111565b9150614a2b826149ea565b602082019050919050565b60006020820190508181036000830152614a4f81614a13565b9050919050565b7f497373756572206e6f7420617574686f72697a65640000000000000000000000600082015250565b6000614a8c601583614111565b9150614a9782614a56565b602082019050919050565b60006020820190508181036000830152614abb81614a7f565b9050919050565b7f50726f706f73616c206d697373696e6700000000000000000000000000000000600082015250565b6000614af8601083614111565b9150614b0382614ac2565b602082019050919050565b60006020820190508181036000830152614b2781614aeb565b9050919050565b7f416c726561647920657865637574656400000000000000000000000000000000600082015250565b6000614b64601083614111565b9150614b6f82614b2e565b602082019050919050565b60006020820190508181036000830152614b9381614b57565b9050919050565b7f416c726561647920617070726f76656400000000000000000000000000000000600082015250565b6000614bd0601083614111565b9150614bdb82614b9a565b602082019050919050565b60006020820190508181036000830152614bff81614bc3565b9050919050565b7f4e487b7100000000000000000000000000000000000000000000000000000000600052601160045260246000fd5b6000614c408261466e565b9150614c4b8361466e565b9250828201905063ffffffff811115614c6757614c66614c06565b5b92915050565b6000602082019050614c82600083018461467e565b92915050565b7f4e6f742069737375657200000000000000000000000000000000000000000000600082015250565b6000614cbe600a83614111565b9150614cc982614c88565b602082019050919050565b60006020820190508181036000830152614ced81614cb1565b9050919050565b6000614cff82613e08565b9150614d0a83613e08565b9250828203905081811115614d2257614d21614c06565b5b92915050565b7f4e487b7100000000000000000000000000000000000000000000000000000000600052603260045260246000fd5b6000614d6282613e08565b9150614d6d83613e08565b9250828201905080821115614d8557614d84614c06565b5b92915050565b7f4e487b7100000000000000000000000000000000000000000000000000000000600052603160045260246000fd5b7f53616d6520697373756572000000000000000000000000000000000000000000600082015250565b6000614df0600b83614111565b9150614dfb82614dba565b602082019050919050565b60006020820190508181036000830152614e1f81614de3565b9050919050565b6000614e3182613e08565b91507fffffffffffffffffffffffffffffffffffffffffffffffffffffffffffffffff8203614e6357614e62614c06565b5b600182019050919050565b6000604082019050614e83600083018561465f565b614e90602083018461468d565b9392505050565b7f4e487b7100000000000000000000000000000000000000000000000000000000600052604160045260246000fd5b7f496e73756666696369656e7420617070726f76616c7300000000000000000000600082015250565b6000614efc601683614111565b9150614f0782614ec6565b602082019050919050565b60006020820190508181036000830152614f2b81614eef565b9050919050565b6000606082019050614f47600083018661465f565b614f546020830185614196565b614f616040830184614196565b949350505050565b7f4365727469666963617465206578697374730000000000000000000000000000600082015250565b6000614f9f601283614111565b9150614faa82614f69565b602082019050919050565b60006020820190508181036000830152614fce81614f92565b9050919050565b7f73746f7261676555524920656d70747900000000000000000000000000000000600082015250565b600061500b601083614111565b915061501682614fd5565b602082019050919050565b6000602082019050818103600083015261503a81614ffe565b9050919050565b7f6973737565644174207a65726f00000000000000000000000000000000000000600082015250565b6000615077600d83614111565b915061508282615041565b602082019050919050565b600060208201905081810360008301526150a68161506a565b9050919050565b6000819050919050565b6150c86150c382613f96565b6150ad565b82525050565b60008160601b9050919050565b60006150e6826150ce565b9050919050565b60006150f8826150db565b9050919050565b61511061510b82613e5e565b6150ed565b82525050565b600061512282856150b7565b60208201915061513282846150ff565b6014820191508190509392505050565b7f4475706c696361746520646f63486173682b6973737565720000000000000000600082015250565b6000615178601883614111565b915061518382615142565b602082019050919050565b600060208201905081810360008301526151a78161516b565b9050919050565b6151b7816143b6565b82525050565b600060a0820190506151d260008301886141a5565b6151df60208301876151ae565b6151ec6040830186614196565b6151f96060830185613f12565b615206608083018461468d565b9695505050505050565b7f63657274696669636174654964206d69736d6174636800000000000000000000600082015250565b6000615246601683614111565b915061525182615210565b602082019050919050565b6000602082019050818103600083015261527581615239565b9050919050565b7f496e76616c6964207369676e6174757265000000000000000000000000000000600082015250565b60006152b2601183614111565b91506152bd8261527c565b602082019050919050565b600060208201905081810360008301526152e1816152a5565b9050919050565b7f4e487b7100000000000000000000000000000000000000000000000000000000600052602260045260246000fd5b6000600282049050600182168061532f57607f821691505b602082108103615342576153416152e8565b5b50919050565b60008190508160005260206000209050919050565b60006020601f8301049050919050565b600082821b905092915050565b6000600883026153aa7fffffffffffffffffffffffffffffffffffffffffffffffffffffffffffffffff8261536d565b6153b4868361536d565b95508019841693508086168417925050509392505050565b6000819050919050565b60006153f16153ec6153e784613e08565b6153cc565b613e08565b9050919050565b6000819050919050565b61540b836153d6565b61541f615417826153f8565b84845461537a565b825550505050565b600090565b615434615427565b61543f818484615402565b505050565b5b818110156154635761545860008261542c565b600181019050615445565b5050565b601f8211156154a85761547981615348565b6154828461535d565b81016020851015615491578190505b6154a561549d8561535d565b830182615444565b50505b505050565b600082821c905092915050565b60006154cb600019846008026154ad565b1980831691505092915050565b60006154e483836154ba565b9150826002028217905092915050565b6154fd82614106565b67ffffffffffffffff81111561551657615515614e97565b5b6155208254615317565b61552b828285615467565b600060209050601f83116001811461555e576000841561554c578287015190505b61555685826154d8565b8655506155be565b601f19841661556c86615348565b60005b828110156155945784890151825560018201915060208501945060208101905061556f565b868310156155b157848901516155ad601f8916826154ba565b8355505b6001600288020188555050505b505050505050565b60008190508160005260206000209050919050565b601f82111561561c576155ed816155c6565b6155f68461535d565b81016020851015615605578190505b6156196156118561535d565b830182615444565b50505b505050565b61562a82614809565b67ffffffffffffffff81111561564357615642614e97565b5b61564d8254615317565b6156588282856155db565b600060209050601f83116001811461568b5760008415615679578287015190505b61568385826154d8565b8655506156eb565b601f198416615699866155c6565b60005b828110156156c15784890151825560018201915060208501945060208101905061569c565b868310156156de57848901516156da601f8916826154ba565b8355505b6001600288020188555050505b505050505050565b82818337600083830152505050565b600061570e8385614111565b935061571b8385846156f3565b6157248361414c565b840190509392505050565b600060808201905061574460008301886141a5565b8181036020830152615757818688615702565b9050615766604083018561468d565b61577360608301846151ae565b9695505050505050565b7f5468726573686f6c64207a65726f000000000000000000000000000000000000600082015250565b60006157b3600e83614111565b91506157be8261577d565b602082019050919050565b600060208201905081810360008301526157e2816157a6565b9050919050565b7f4e6f742061637469766500000000000000000000000000000000000000000000600082015250565b600061581f600a83614111565b915061582a826157e9565b602082019050919050565b6000602082019050818103600083015261584e81615812565b9050919050565b7f4e6f7420617574686f72697a6564000000000000000000000000000000000000600082015250565b600061588b600e83614111565b915061589682615855565b602082019050919050565b600060208201905081810360008301526158ba8161587e565b9050919050565b7f526561736f6e2072657175697265640000000000000000000000000000000000600082015250565b60006158f7600f83614111565b9150615902826158c1565b602082019050919050565b60006020820190508181036000830152615926816158ea565b9050919050565b7f526561736f6e20746f6f206c6f6e670000000000000000000000000000000000600082015250565b6000615963600f83614111565b915061596e8261592d565b602082019050919050565b6000602082019050818103600083015261599281615956565b9050919050565b7f5369676e61747572652072657175697265640000000000000000000000000000600082015250565b60006159cf601283614111565b91506159da82615999565b602082019050919050565b600060208201905081810360008301526159fe816159c2565b9050919050565b7f496e76616c6964207265766f6b65207369676e61747572650000000000000000600082015250565b6000615a3b601883614111565b9150615a4682615a05565b602082019050919050565b60006020820190508181036000830152615a6a81615a2e565b9050919050565b600082905092915050565b615a868383615a71565b67ffffffffffffffff811115615a9f57615a9e614e97565b5b615aa98254615317565b615ab4828285615467565b6000601f831160018114615ae35760008415615ad1578287013590505b615adb85826154d8565b865550615b43565b601f198416615af186615348565b60005b82811015615b1957848901358255600182019150602085019450602081019050615af4565b86831015615b365784890135615b32601f8916826154ba565b8355505b6001600288020188555050505b50505050505050565b600082905092915050565b615b618383615b4c565b67ffffffffffffffff811115615b7a57615b79614e97565b5b615b848254615317565b615b8f8282856155db565b6000601f831160018114615bbe5760008415615bac578287013590505b615bb685826154d8565b865550615c1e565b601f198416615bcc866155c6565b60005b82811015615bf457848901358255600182019150602085019450602081019050615bcf565b86831015615c115784890135615c0d601f8916826154ba565b8355505b6001600288020188555050505b50505050505050565b60006040820190508181036000830152615c42818587615702565b9050615c51602083018461468d565b949350505050565b600081905092915050565b6000615c708385615c59565b9350615c7d8385846156f3565b82840190509392505050565b6000615c96828486615c64565b91508190509392505050565b600061010082019050615cb8600083018b6141a5565b615cc5602083018a6141a5565b615cd260408301896141a5565b615cdf60608301886141a5565b615cec6080830187614196565b615cf960a0830186613f12565b615d0660c0830185613f12565b615d1360e08301846151ae565b9998505050505050505050565b600060a082019050615d3560008301886141a5565b615d4260208301876141a5565b615d4f60408301866141a5565b615d5c6060830185614196565b615d696080830184613f12565b9695505050505050565b6000602082019050615d8860008301846141a5565b92915050565b600060a082019050615da360008301886141a5565b615db060208301876141a5565b615dbd60408301866141a5565b615dca6060830185613f12565b615dd76080830184614196565b9695505050505050565b600060ff82169050919050565b615df781615de1565b82525050565b6000608082019050615e1260008301876141a5565b615e1f6020830186615dee565b615e2c60408301856141a5565b615e3960608301846141a5565b9594505050505056fea26469706673582212205d4777e8d8010ef064b4738e29c9ceda4ab42cb8531aa4f9da0c3c4acdf80cbd64736f6c634300081c0033",
  "linkReferences": {},
  "deployedLinkReferences": {}
}