{
  "_format": "hh-sol-artifact-1",
  "contractName": "CertificateRegistry",
  "sourceName": "contracts/CertificateRegistry.sol",
  "abi": [
    {
      "inputs": [
        {
          "internalType": "address",
          "name": "initialOwner",
          "type": "address"
        }
      ],
      "stateMutability": "nonpayable",
      "type": "constructor"
    },
    {
      "inputs": [],
      "name": "ECDSAInvalidSignature",
      "type": "error"
    },
    {
      "inputs": [
        {
          "internalType": "uint256",
          "name": "length",
          "type": "uint256"
        }
      ],
      "name": "ECDSAInvalidSignatureLength",
      "type": "error"
    },
    {
      "inputs": [
        {
          "internalType": "bytes32",
          "name": "s",
          "type": "bytes32"
        }
      ],
      "name": "ECDSAInvalidSignatureS",
      "type": "error"
    },
    {
      "inputs": [],
      "name": "InvalidShortString",
      "type": "error"
    },
    {
      "inputs": [
        {
          "internalType": "address",
          "name": "owner",
          "type": "address"
        }
      ],
      "name": "OwnableInvalidOwner",
      "type": "error"
    },
    {
      "inputs": [
        {
          "internalType": "address",
          "name": "account",
          "type": "address"
        }
      ],
      "name": "OwnableUnauthorizedAccount",
      "type": "error"
    },
    {
      "inputs": [],
      "name": "ReentrancyGuardReentrantCall",
      "type": "error"
    },
    {
      "inputs": [
        {
          "internalType": "string",
          "name": "str",
          "type": "string"
        }
      ],
      "name": "StringTooLong",
      "type": "error"
    },
    {
      "anonymous": false,
      "inputs": [
        {
          "indexed": true,
          "internalType": "bytes32",
          "name": "certificateId",
          "type": "bytes32"
        },
        {
          "indexed": true,
          "internalType": "address",
          "name": "issuer",
          "type": "address"
        },
        {
          "indexed": false,
          "internalType": "bytes32",
          "name": "docHash",
          "type": "bytes32"
        },
        {
          "indexed": false,
          "internalType": "string",
          "name": "storageURI",
          "type": "string"
        },
        {
          "indexed": false,
          "internalType": "uint64",
          "name": "issuedAt",
          "type": "uint64"
        },
        {
          "indexed": false,
          "internalType": "bytes16",
          "name": "salt",
          "type": "bytes16"
        }
      ],
      "name": "CertificateIssued",
      "type": "event"
    },
    {
      "anonymous": false,
      "inputs": [
        {
          "indexed": true,
          "internalType": "bytes32",
          "name": "certificateId",
          "type": "bytes32"
        },
        {
          "indexed": true,
          "internalType": "address",
          "name": "issuer",
          "type": "address"
        },
        {
          "indexed": false,
          "internalType": "string",
          "name": "reason",
          "type": "string"
        },
        {
          "indexed": false,
          "internalType": "uint64",
          "name": "revokedAt",
          "type": "uint64"
        }
      ],
      "name": "CertificateRevoked",
      "type": "event"
    },
    {
      "anonymous": false,
      "inputs": [],
      "name": "EIP712DomainChanged",
      "type": "event"
    },
    {
      "anonymous": false,
      "inputs": [
        {
          "indexed": true,
          "internalType": "uint256",
          "name": "proposalId",
          "type": "uint256"
        },
        {
          "indexed": true,
          "internalType": "address",
          "name": "approver",
          "type": "address"
        },
        {
          "indexed": false,
          "internalType": "uint32",
          "name": "approvals",
          "type": "uint32"
        }
      ],
      "name": "IssuerUpdateApproved",
      "type": "event"
    },
    {
      "anonymous": false,
      "inputs": [
        {
          "indexed": true,
          "internalType": "uint256",
          "name": "proposalId",
          "type": "uint256"
        },
        {
          "indexed": false,
          "internalType": "enum CertificateRegistry.IssuerUpdateAction",
          "name": "action",
          "type": "uint8"
        },
        {
          "indexed": false,
          "internalType": "address",
          "name": "issuer",
          "type": "address"
        },
        {
          "indexed": false,
          "internalType": "address",
          "name": "newIssuer",
          "type": "address"
        }
      ],
      "name": "IssuerUpdateExecuted",
      "type": "event"
    },
    {
      "anonymous": false,
      "inputs": [
        {
          "indexed": true,
          "internalType": "uint256",
          "name": "proposalId",
          "type": "uint256"
        },
        {
          "indexed": false,
          "internalType": "enum CertificateRegistry.IssuerUpdateAction",
          "name": "action",
          "type": "uint8"
        },
        {
          "indexed": true,
          "internalType": "address",
          "name": "issuer",
          "type": "address"
        },
        {
          "indexed": true,
          "internalType": "address",
          "name": "newIssuer",
          "type": "address"
        },
        {
          "indexed": false,
          "internalType": "uint64",
          "name": "createdAt",
          "type": "uint64"
        }
      ],
      "name": "IssuerUpdateProposed",
      "type": "event"
    },
    {
      "anonymous": false,
      "inputs": [
        {
          "indexed": false,
          "internalType": "uint256",
          "name": "threshold",
          "type": "uint256"
        }
      ],
      "name": "IssuerUpdateThresholdUpdated",
      "type": "event"
    },
    {
      "anonymous": false,
      "inputs": [
        {
          "indexed": true,
          "internalType": "address",
          "name": "issuer",
          "type": "address"
        },
        {
          "indexed": false,
          "internalType": "bool",
          "name": "authorized",
          "type": "bool"
        }
      ],
      "name": "IssuerUpdated",
      "type": "event"
    },
    {
      "anonymous": false,
      "inputs": [
        {
          "indexed": true,
          "internalType": "address",
          "name": "previousOwner",
          "type": "address"
        },
        {
          "indexed": true,
          "internalType": "address",
          "name": "newOwner",
          "type": "address"
        }
      ],
      "name": "OwnershipTransferred",
      "type": "event"
    },
    {
      "inputs": [
        {
          "internalType": "address",
          "name": "issuer",
          "type": "address"
        }
      ],
      "name": "addIssuer",
      "outputs": [],
      "stateMutability": "nonpayable",
      "type": "function"
    },
    {
      "inputs": [
        {
          "internalType": "uint256",
          "name": "proposalId",
          "type": "uint256"
        }
      ],
      "name": "approveIssuerUpdate",
      "outputs": [],
      "stateMutability": "nonpayable",
      "type": "function"
    },
    {
      "inputs": [
        {
          "internalType": "bytes32",
          "name": "certificateId",
          "type": "bytes32"
        }
      ],
      "name": "certificateStatus",
      "outputs": [
        {
          "internalType": "enum CertificateRegistry.Status",
          "name": "",
          "type": "uint8"
        }
      ],
      "stateMutability": "view",
      "type": "function"
    },
    {
      "inputs": [],
      "name": "eip712Domain",
      "outputs": [
        {
          "internalType": "bytes1",
          "name": "fields",
          "type": "bytes1"
        },
        {
          "internalType": "string",
          "name": "name",
          "type": "string"
        },
        {
          "internalType": "string",
          "name": "version",
          "type": "string"
        },
        {
          "internalType": "uint256",
          "name": "chainId",
          "type": "uint256"
        },
        {
          "internalType": "address",
          "name": "verifyingContract",
          "type": "address"
        },
        {
          "internalType": "bytes32",
          "name": "salt",
          "type": "bytes32"
        },
        {
          "internalType": "uint256[]",
          "name": "extensions",
          "type": "uint256[]"
        }
      ],
      "stateMutability": "view",
      "type": "function"
    },
    {
      "inputs": [
        {
          "internalType": "uint256",
          "name": "proposalId",
          "type": "uint256"
        }
      ],
      "name": "executeIssuerUpdate",
      "outputs": [],
      "stateMutability": "nonpayable",
      "type": "function"
    },
    {
      "inputs": [
        {
          "internalType": "bytes32",
          "name": "certificateId",
          "type": "bytes32"
        }
      ],
      "name": "getCertificate",
      "outputs": [
        {
          "components": [
            {
              "internalType": "bytes32",
              "name": "docHash",
              "type": "bytes32"
            },
            {
              "internalType": "string",
              "name": "storageURI",
              "type": "string"
            },
            {
              "internalType": "address",
              "name": "issuer",
              "type": "address"
            },
            {
              "internalType": "uint64",
              "name": "issuedAt",
              "type": "uint64"
            },
            {
              "internalType": "enum CertificateRegistry.Status",
              "name": "status",
              "type": "uint8"
            },
            {
              "internalType": "string",
              "name": "revokeReason",
              "type": "string"
            },
            {
              "internalType": "uint64",
              "name": "revokedAt",
              "type": "uint64"
            },
            {
              "internalType": "bytes",
              "name": "issuerSignature",
              "type": "bytes"
            },
            {
              "internalType": "bytes16",
              "name": "salt",
              "type": "bytes16"
            }
          ],
          "internalType": "struct CertificateRegistry.Certificate",
          "name": "",
          "type": "tuple"
        }
      ],
      "stateMutability": "view",
      "type": "function"
    },
    {
      "inputs": [],
      "name": "getIssuers",
      "outputs": [
        {
          "internalType": "address[]",
          "name": "",
          "type": "address[]"
        }
      ],
      "stateMutability": "view",
      "type": "function"
    },
    {
      "inputs": [
        {
          "internalType": "uint256",
          "name": "proposalId",
          "type": "uint256"
        },
        {
          "internalType": "address",
          "name": "approver",
          "type": "address"
        }
      ],
      "name": "hasApprovedIssuerUpdate",
      "outputs": [
        {
          "internalType": "bool",
          "name": "",
          "type": "bool"
        }
      ],
      "stateMutability": "view",
      "type": "function"
    },
    {
      "inputs": [
        {
          "internalType": "address",
          "name": "",
          "type": "address"
        }
      ],
      "name": "isAuthorizedIssuer",
      "outputs": [
        {
          "internalType": "bool",
          "name": "",
          "type": "bool"
        }
      ],
      "stateMutability": "view",
      "type": "function"
    },
    {
      "inputs": [
        {
          "internalType": "bytes32",
          "name": "certificateId",
          "type": "bytes32"
        },
        {
          "internalType": "bytes32",
          "name": "docHash",
          "type": "bytes32"
        },
        {
          "internalType": "string",
          "name": "storageURI",
          "type": "string"
        },
        {
          "internalType": "address",
          "name": "issuer",
          "type": "address"
        },
        {
          "internalType": "uint64",
          "name": "issuedAt",
          "type": "uint64"
        },
        {
          "internalType": "bytes16",
          "name": "salt",
          "type": "bytes16"
        },
        {
          "internalType": "bytes",
          "name": "issuerSignature",
          "type": "bytes"
        }
      ],
      "name": "issueCertificate",
      "outputs": [],
      "stateMutability": "nonpayable",
      "type": "function"
    },
    {
      "inputs": [
        {
          "internalType": "uint256",
          "name": "",
          "type": "uint256"
        }
      ],
      "name": "issuerUpdateProposals",
      "outputs": [
        {
          "internalType": "enum CertificateRegistry.IssuerUpdateAction",
          "name": "action",
          "type": "uint8"
        },
        {
          "internalType": "address",
          "name": "issuer",
          "type": "address"
        },
        {
          "internalType": "address",
          "name": "newIssuer",
          "type": "address"
        },
        {
          "internalType": "uint32",
          "name": "approvals",
          "type": "uint32"
        },
        {
          "internalType": "bool",
          "name": "executed",
          "type": "bool"
        },
        {
          "internalType": "uint64",
          "name": "createdAt",
          "type": "uint64"
        }
      ],
      "stateMutability": "view",
      "type": "function"
    },
    {
      "inputs": [],
      "name": "issuerUpdateThreshold",
      "outputs": [
        {
          "internalType": "uint256",
          "name": "",
          "type": "uint256"
        }
      ],
      "stateMutability": "view",
      "type": "function"
    },
    {
      "inputs": [],
      "name": "nextIssuerUpdateProposalId",
      "outputs": [
        {
          "internalType": "uint256",
          "name": "",
          "type": "uint256"
        }
      ],
      "stateMutability": "view",
      "type": "function"
    },
    {
      "inputs": [],
      "name": "owner",
      "outputs": [
        {
          "internalType": "address",
          "name": "",
          "type": "address"
        }
      ],
      "stateMutability": "view",
      "type": "function"
    },
    {
      "inputs": [
        {
          "internalType": "address",
          "name": "newIssuer",
          "type": "address"
        }
      ],
      "name": "proposeAddIssuer",
      "outputs": [
        {
          "internalType": "uint256",
          "name": "proposalId",
          "type": "uint256"
        }
      ],
      "stateMutability": "nonpayable",
      "type": "function"
    },
    {
      "inputs": [
        {
          "internalType": "address",
          "name": "issuer",
          "type": "address"
        },
        {
          "internalType": "address",
          "name": "newIssuer",
          "type": "address"
        }
      ],
      "name": "proposeRotateIssuer",
      "outputs": [
        {
          "internalType": "uint256",
          "name": "proposalId",
          "type": "uint256"
        }
      ],
      "stateMutability": "nonpayable",
      "type": "function"
    },
    {
      "inputs": [
        {
          "internalType": "address",
          "name": "issuer",
          "type": "address"
        }
      ],
      "name": "removeIssuer",
      "outputs": [],
      "stateMutability": "nonpayable",
      "type": "function"
    },
    {
      "inputs": [],
      "name": "renounceOwnership",
      "outputs": [],
      "stateMutability": "nonpayable",
      "type": "function"
    },
    {
      "inputs": [
        {
          "internalType": "bytes32",
          "name": "certificateId",
          "type": "bytes32"
        },
        {
          "internalType": "string",
          "name": "reason",
          "type": "string"
        }
      ],
      "name": "revokeCertificate",
      "outputs": [],
      "stateMutability": "nonpayable",
      "type": "function"
    },
    {
      "inputs": [
        {
          "internalType": "uint256",
          "name": "threshold",
          "type": "uint256"
        }
      ],
      "name": "setIssuerUpdateThreshold",
      "outputs": [],
      "stateMutability": "nonpayable",
      "type": "function"
    },
    {
      "inputs": [
        {
          "internalType": "address",
          "name": "newOwner",
          "type": "address"
        }
      ],
      "name": "transferOwnership",
      "outputs": [],
      "stateMutability": "nonpayable",
      "type": "function"
    }
  ],
  "bytecode": "0x61016060405260016009556001600a5534801561001b57600080fd5b50604051616319380380616319833981810160405281019061003d919061042a565b806040518060400160405280601381526020017f43657274696669636174655265676973747279000000000000000000000000008152506040518060400160405280600181526020017f31000000000000000000000000000000000000000000000000000000000000008152506100be6000836101e460201b90919060201c565b61012081815250506100da6001826101e460201b90919060201c565b6101408181525050818051906020012060e08181525050808051906020012061010081815250504660a0818152505061011761023460201b60201c565b608081815250503073ffffffffffffffffffffffffffffffffffffffff1660c08173ffffffffffffffffffffffffffffffffffffffff16815250505050600073ffffffffffffffffffffffffffffffffffffffff168173ffffffffffffffffffffffffffffffffffffffff16036101c65760006040517f1e4fbdf70000000000000000000000000000000000000000000000000000000081526004016101bd9190610466565b60405180910390fd5b6101d58161028f60201b60201c565b5060016003819055505061095c565b6000602083511015610206576101ff8361035560201b60201c565b905061022e565b82610216836103bd60201b60201c565b600001908161022591906106d1565b5060ff60001b90505b92915050565b60007f8b73c3c69bb8fe3d512ecc4cf759cc79239f7b179b0ffacaa9a75d522b39400f60e0516101005146306040516020016102749594939291906107cb565b60405160208183030381529060405280519060200120905090565b6000600260009054906101000a900473ffffffffffffffffffffffffffffffffffffffff16905081600260006101000a81548173ffffffffffffffffffffffffffffffffffffffff021916908373ffffffffffffffffffffffffffffffffffffffff1602179055508173ffffffffffffffffffffffffffffffffffffffff168173ffffffffffffffffffffffffffffffffffffffff167f8be0079c531659141344cd1fd0a4f28419497f9722a3daafe3b4186f6b6457e060405160405180910390a35050565b600080829050601f815111156103a257826040517f305a27a900000000000000000000000000000000000000000000000000000000815260040161039991906108a3565b60405180910390fd5b8051816103ae906108f5565b60001c1760001b915050919050565b6000819050919050565b600080fd5b600073ffffffffffffffffffffffffffffffffffffffff82169050919050565b60006103f7826103cc565b9050919050565b610407816103ec565b811461041257600080fd5b50565b600081519050610424816103fe565b92915050565b6000602082840312156104405761043f6103c7565b5b600061044e84828501610415565b91505092915050565b610460816103ec565b82525050565b600060208201905061047b6000830184610457565b92915050565b600081519050919050565b7f4e487b7100000000000000000000000000000000000000000000000000000000600052604160045260246000fd5b7f4e487b7100000000000000000000000000000000000000000000000000000000600052602260045260246000fd5b6000600282049050600182168061050257607f821691505b602082108103610515576105146104bb565b5b50919050565b60008190508160005260206000209050919050565b60006020601f8301049050919050565b600082821b905092915050565b60006008830261057d7fffffffffffffffffffffffffffffffffffffffffffffffffffffffffffffffff82610540565b6105878683610540565b95508019841693508086168417925050509392505050565b6000819050919050565b6000819050919050565b60006105ce6105c96105c48461059f565b6105a9565b61059f565b9050919050565b6000819050919050565b6105e8836105b3565b6105fc6105f4826105d5565b84845461054d565b825550505050565b600090565b610611610604565b61061c8184846105df565b505050565b5b8181101561064057610635600082610609565b600181019050610622565b5050565b601f821115610685576106568161051b565b61065f84610530565b8101602085101561066e578190505b61068261067a85610530565b830182610621565b50505b505050565b600082821c905092915050565b60006106a86000198460080261068a565b1980831691505092915050565b60006106c18383610697565b9150826002028217905092915050565b6106da82610481565b67ffffffffffffffff8111156106f3576106f261048c565b5b6106fd82546104ea565b610708828285610644565b600060209050601f83116001811461073b5760008415610729578287015190505b61073385826106b5565b86555061079b565b601f1984166107498661051b565b60005b828110156107715784890151825560018201915060208501945060208101905061074c565b8683101561078e578489015161078a601f891682610697565b8355505b6001600288020188555050505b505050505050565b6000819050919050565b6107b6816107a3565b82525050565b6107c58161059f565b82525050565b600060a0820190506107e060008301886107ad565b6107ed60208301876107ad565b6107fa60408301866107ad565b61080760608301856107bc565b6108146080830184610457565b9695505050505050565b600082825260208201905092915050565b60005b8381101561084d578082015181840152602081019050610832565b60008484015250505050565b6000601f19601f8301169050919050565b600061087582610481565b61087f818561081e565b935061088f81856020860161082f565b61089881610859565b840191505092915050565b600060208201905081810360008301526108bd818461086a565b905092915050565b600081519050919050565b6000819050602082019050919050565b60006108ec82516107a3565b80915050919050565b6000610900826108c5565b8261090a846108d0565b9050610915816108e0565b92506020821015610955576109507fffffffffffffffffffffffffffffffffffffffffffffffffffffffffffffffff83602003600802610540565b831692505b5050919050565b60805160a05160c05160e0516101005161012051610140516159636109b660003960006133850152600061334a0152600061395e0152600061393d015260006136140152600061366a0152600061369301526159636000f3fe608060405234801561001057600080fd5b50600436106101375760003560e01c806384b0196e116100b8578063a594da951161007c578063a594da951461032c578063b5f2234d1461034a578063c887262e1461037f578063e488b9d01461039b578063f2fde38b146103cb578063f333fe08146103e757610137565b806384b0196e14610294578063886fc067146102b85780638da5cb5b146102d45780638dc7a67f146102f2578063a185cb1b1461030e57610137565b80633658d476116100ff5780633658d476146101f257806347bc7093146102225780635bf4adfb1461023e578063622c3e7a1461025a578063715018a61461028a57610137565b8063132a30641461013c578063185d3a9f1461016c57806320694db01461018a57806331ba1966146101a657806334ef32cb146101d6575b600080fd5b61015660048036038101906101519190613bde565b610417565b6040516101639190613c39565b60405180910390f35b61017461047f565b6040516101819190613c63565b60405180910390f35b6101a4600480360381019061019f9190613c7e565b610485565b005b6101c060048036038101906101bb9190613c7e565b6106df565b6040516101cd9190613c39565b60405180910390f35b6101f060048036038101906101eb9190613cab565b6106ff565b005b61020c60048036038101906102079190613d0e565b610a1c565b6040516102199190613db2565b60405180910390f35b61023c60048036038101906102379190613c7e565b610a49565b005b61025860048036038101906102539190613e32565b610d83565b005b610274600480360381019061026f9190613e92565b611083565b6040516102819190613c63565b60405180910390f35b6102926114d4565b005b61029c6114e8565b6040516102af9796959493929190614079565b60405180910390f35b6102d260048036038101906102cd9190613cab565b611592565b005b6102dc612241565b6040516102e991906140fd565b60405180910390f35b61030c60048036038101906103079190614206565b61226b565b005b6103166128cb565b6040516103239190613c63565b60405180910390f35b6103346128d1565b60405161034191906143a6565b60405180910390f35b610364600480360381019061035f9190613cab565b61295f565b6040516103769695949392919061443e565b60405180910390f35b61039960048036038101906103949190613cab565b612a19565b005b6103b560048036038101906103b09190613c7e565b612aa5565b6040516103c29190613c63565b60405180910390f35b6103e560048036038101906103e09190613c7e565b612dfe565b005b61040160048036038101906103fc9190613d0e565b612e84565b60405161040e919061464d565b60405180910390f35b6000600c600084815260200190815260200160002060008373ffffffffffffffffffffffffffffffffffffffff1673ffffffffffffffffffffffffffffffffffffffff16815260200190815260200160002060009054906101000a900460ff16905092915050565b600a5481565b61048d6131a4565b600073ffffffffffffffffffffffffffffffffffffffff168173ffffffffffffffffffffffffffffffffffffffff16036104fc576040517f08c379a00000000000000000000000000000000000000000000000000000000081526004016104f3906146bb565b60405180910390fd5b600660008273ffffffffffffffffffffffffffffffffffffffff1673ffffffffffffffffffffffffffffffffffffffff16815260200190815260200160002060009054906101000a900460ff1615610589576040517f08c379a000000000000000000000000000000000000000000000000000000000815260040161058090614727565b60405180910390fd5b6001600660008373ffffffffffffffffffffffffffffffffffffffff1673ffffffffffffffffffffffffffffffffffffffff16815260200190815260200160002060006101000a81548160ff0219169083151502179055506007819080600181540180825580915050600190039060005260206000200160009091909190916101000a81548173ffffffffffffffffffffffffffffffffffffffff021916908373ffffffffffffffffffffffffffffffffffffffff160217905550600780549050600860008373ffffffffffffffffffffffffffffffffffffffff1673ffffffffffffffffffffffffffffffffffffffff168152602001908152602001600020819055508073ffffffffffffffffffffffffffffffffffffffff167f2da8853a4b9cb460e0d55b3ebaf4233e43c285958527a4dc0b67aa4b71b91af860016040516106d49190613c39565b60405180910390a250565b60066020528060005260406000206000915054906101000a900460ff1681565b600660003373ffffffffffffffffffffffffffffffffffffffff1673ffffffffffffffffffffffffffffffffffffffff16815260200190815260200160002060009054906101000a900460ff1661078b576040517f08c379a000000000000000000000000000000000000000000000000000000000815260040161078290614793565b60405180910390fd5b6000600b60008381526020019081526020016000209050600060028111156107b6576107b5613d3b565b5b8160000160009054906101000a900460ff1660028111156107da576107d9613d3b565b5b0361081a576040517f08c379a0000000000000000000000000000000000000000000000000000000008152600401610811906147ff565b60405180910390fd5b8060010160189054906101000a900460ff161561086c576040517f08c379a00000000000000000000000000000000000000000000000000000000081526004016108639061486b565b60405180910390fd5b600c600083815260200190815260200160002060003373ffffffffffffffffffffffffffffffffffffffff1673ffffffffffffffffffffffffffffffffffffffff16815260200190815260200160002060009054906101000a900460ff161561090a576040517f08c379a0000000000000000000000000000000000000000000000000000000008152600401610901906148d7565b60405180910390fd5b6001600c600084815260200190815260200160002060003373ffffffffffffffffffffffffffffffffffffffff1673ffffffffffffffffffffffffffffffffffffffff16815260200190815260200160002060006101000a81548160ff02191690831515021790555060018160010160148282829054906101000a900463ffffffff166109979190614926565b92506101000a81548163ffffffff021916908363ffffffff1602179055503373ffffffffffffffffffffffffffffffffffffffff16827fd1542feab27e66d6ac9a50b5fee1d999c9750a5bbafddddf814810ffa7cf74ae8360010160149054906101000a900463ffffffff16604051610a10919061495e565b60405180910390a35050565b600060046000838152602001908152602001600020600201601c9054906101000a900460ff169050919050565b610a516131a4565b600660008273ffffffffffffffffffffffffffffffffffffffff1673ffffffffffffffffffffffffffffffffffffffff16815260200190815260200160002060009054906101000a900460ff16610add576040517f08c379a0000000000000000000000000000000000000000000000000000000008152600401610ad4906149c5565b60405180910390fd5b6000600660008373ffffffffffffffffffffffffffffffffffffffff1673ffffffffffffffffffffffffffffffffffffffff16815260200190815260200160002060006101000a81548160ff0219169083151502179055506000600860008373ffffffffffffffffffffffffffffffffffffffff1673ffffffffffffffffffffffffffffffffffffffff16815260200190815260200160002054905060008114610d30576000600182610b9091906149e5565b905060006001600780549050610ba691906149e5565b9050808214610ca157600060078281548110610bc557610bc4614a19565b5b9060005260206000200160009054906101000a900473ffffffffffffffffffffffffffffffffffffffff1690508060078481548110610c0757610c06614a19565b5b9060005260206000200160006101000a81548173ffffffffffffffffffffffffffffffffffffffff021916908373ffffffffffffffffffffffffffffffffffffffff160217905550600183610c5c9190614a48565b600860008373ffffffffffffffffffffffffffffffffffffffff1673ffffffffffffffffffffffffffffffffffffffff16815260200190815260200160002081905550505b6007805480610cb357610cb2614a7c565b5b6001900381819060005260206000200160006101000a81549073ffffffffffffffffffffffffffffffffffffffff021916905590556000600860008673ffffffffffffffffffffffffffffffffffffffff1673ffffffffffffffffffffffffffffffffffffffff1681526020019081526020016000208190555050505b8173ffffffffffffffffffffffffffffffffffffffff167f2da8853a4b9cb460e0d55b3ebaf4233e43c285958527a4dc0b67aa4b71b91af86000604051610d779190613c39565b60405180910390a25050565b610d8b61322b565b600060046000858152602001908152602001600020905060016002811115610db657610db5613d3b565b5b81600201601c9054906101000a900460ff166002811115610dda57610dd9613d3b565b5b14610e1a576040517f08c379a0000000000000000000000000000000000000000000000000000000008152600401610e1190614af7565b60405180910390fd5b610e22612241565b73ffffffffffffffffffffffffffffffffffffffff163373ffffffffffffffffffffffffffffffffffffffff161480610eaa57508060020160009054906101000a900473ffffffffffffffffffffffffffffffffffffffff1673ffffffffffffffffffffffffffffffffffffffff163373ffffffffffffffffffffffffffffffffffffffff16145b610ee9576040517f08c379a0000000000000000000000000000000000000000000000000000000008152600401610ee090614b63565b60405180910390fd5b600083839050905060008111610f34576040517f08c379a0000000000000000000000000000000000000000000000000000000008152600401610f2b90614bcf565b60405180910390fd5b610100811115610f79576040517f08c379a0000000000000000000000000000000000000000000000000000000008152600401610f7090614c3b565b60405180910390fd5b600282600201601c6101000a81548160ff02191690836002811115610fa157610fa0613d3b565b5b02179055508383836003019182610fb9929190614ea1565b50428260040160006101000a81548167ffffffffffffffff021916908367ffffffffffffffff1602179055508160020160009054906101000a900473ffffffffffffffffffffffffffffffffffffffff1673ffffffffffffffffffffffffffffffffffffffff16857f865d29fb1978285be299cb928643a1123da5a6814911af0418546955536749b986868660040160009054906101000a900467ffffffffffffffff1660405161106c93929190614fad565b60405180910390a3505061107e613271565b505050565b600061108d6131a4565b600660008473ffffffffffffffffffffffffffffffffffffffff1673ffffffffffffffffffffffffffffffffffffffff16815260200190815260200160002060009054906101000a900460ff16611119576040517f08c379a0000000000000000000000000000000000000000000000000000000008152600401611110906149c5565b60405180910390fd5b600073ffffffffffffffffffffffffffffffffffffffff168273ffffffffffffffffffffffffffffffffffffffff1603611188576040517f08c379a000000000000000000000000000000000000000000000000000000000815260040161117f906146bb565b60405180910390fd5b600660008373ffffffffffffffffffffffffffffffffffffffff1673ffffffffffffffffffffffffffffffffffffffff16815260200190815260200160002060009054906101000a900460ff1615611215576040517f08c379a000000000000000000000000000000000000000000000000000000000815260040161120c90614727565b60405180910390fd5b8173ffffffffffffffffffffffffffffffffffffffff168373ffffffffffffffffffffffffffffffffffffffff1603611283576040517f08c379a000000000000000000000000000000000000000000000000000000000815260040161127a9061502b565b60405180910390fd5b600a60008154809291906112969061504b565b9190505590506040518060c001604052806002808111156112ba576112b9613d3b565b5b81526020018473ffffffffffffffffffffffffffffffffffffffff1681526020018373ffffffffffffffffffffffffffffffffffffffff168152602001600063ffffffff1681526020016000151581526020014267ffffffffffffffff16815250600b600083815260200190815260200160002060008201518160000160006101000a81548160ff0219169083600281111561135957611358613d3b565b5b021790555060208201518160000160016101000a81548173ffffffffffffffffffffffffffffffffffffffff021916908373ffffffffffffffffffffffffffffffffffffffff16021790555060408201518160010160006101000a81548173ffffffffffffffffffffffffffffffffffffffff021916908373ffffffffffffffffffffffffffffffffffffffff16021790555060608201518160010160146101000a81548163ffffffff021916908363ffffffff16021790555060808201518160010160186101000a81548160ff02191690831515021790555060a08201518160020160006101000a81548167ffffffffffffffff021916908367ffffffffffffffff1602179055509050508173ffffffffffffffffffffffffffffffffffffffff168373ffffffffffffffffffffffffffffffffffffffff16827f54a8f7d4d345108a078f81d9afe7f357383632f7e97e1a366ea07ccf375bb3286002426040516114c6929190615093565b60405180910390a492915050565b6114dc6131a4565b6114e6600061327b565b565b6000606080600080600060606114fc613341565b61150461337c565b46306000801b600067ffffffffffffffff81111561152557611524614c66565b5b6040519080825280602002602001820160405280156115535781602001602082028036833780820191505090505b507f0f00000000000000000000000000000000000000000000000000000000000000959493929190965096509650965096509650965090919293949596565b61159a6131a4565b6000600b60008381526020019081526020016000209050600060028111156115c5576115c4613d3b565b5b8160000160009054906101000a900460ff1660028111156115e9576115e8613d3b565b5b03611629576040517f08c379a0000000000000000000000000000000000000000000000000000000008152600401611620906147ff565b60405180910390fd5b8060010160189054906101000a900460ff161561167b576040517f08c379a00000000000000000000000000000000000000000000000000000000081526004016116729061486b565b60405180910390fd5b6009548160010160149054906101000a900463ffffffff1663ffffffff1610156116da576040517f08c379a00000000000000000000000000000000000000000000000000000000081526004016116d190615108565b60405180910390fd5b60018160010160186101000a81548160ff0219169083151502179055506001600281111561170b5761170a613d3b565b5b8160000160009054906101000a900460ff16600281111561172f5761172e613d3b565b5b03611a6057600073ffffffffffffffffffffffffffffffffffffffff168160010160009054906101000a900473ffffffffffffffffffffffffffffffffffffffff1673ffffffffffffffffffffffffffffffffffffffff16036117c7576040517f08c379a00000000000000000000000000000000000000000000000000000000081526004016117be906146bb565b60405180910390fd5b600660008260010160009054906101000a900473ffffffffffffffffffffffffffffffffffffffff1673ffffffffffffffffffffffffffffffffffffffff1673ffffffffffffffffffffffffffffffffffffffff16815260200190815260200160002060009054906101000a900460ff1615611878576040517f08c379a000000000000000000000000000000000000000000000000000000000815260040161186f90614727565b60405180910390fd5b6001600660008360010160009054906101000a900473ffffffffffffffffffffffffffffffffffffffff1673ffffffffffffffffffffffffffffffffffffffff1673ffffffffffffffffffffffffffffffffffffffff16815260200190815260200160002060006101000a81548160ff02191690831515021790555060078160010160009054906101000a900473ffffffffffffffffffffffffffffffffffffffff169080600181540180825580915050600190039060005260206000200160009091909190916101000a81548173ffffffffffffffffffffffffffffffffffffffff021916908373ffffffffffffffffffffffffffffffffffffffff160217905550600780549050600860008360010160009054906101000a900473ffffffffffffffffffffffffffffffffffffffff1673ffffffffffffffffffffffffffffffffffffffff1673ffffffffffffffffffffffffffffffffffffffff168152602001908152602001600020819055508060010160009054906101000a900473ffffffffffffffffffffffffffffffffffffffff1673ffffffffffffffffffffffffffffffffffffffff167f2da8853a4b9cb460e0d55b3ebaf4233e43c285958527a4dc0b67aa4b71b91af86001604051611a539190613c39565b60405180910390a26121a8565b600280811115611a7357611a72613d3b565b5b8160000160009054906101000a900460ff166002811115611a9757611a96613d3b565b5b036121a757600660008260000160019054906101000a900473ffffffffffffffffffffffffffffffffffffffff1673ffffffffffffffffffffffffffffffffffffffff1673ffffffffffffffffffffffffffffffffffffffff16815260200190815260200160002060009054906101000a900460ff16611b4c576040517f08c379a0000000000000000000000000000000000000000000000000000000008152600401611b43906149c5565b60405180910390fd5b600073ffffffffffffffffffffffffffffffffffffffff168160010160009054906101000a900473ffffffffffffffffffffffffffffffffffffffff1673ffffffffffffffffffffffffffffffffffffffff1603611bdf576040517f08c379a0000000000000000000000000000000000000000000000000000000008152600401611bd6906146bb565b60405180910390fd5b600660008260010160009054906101000a900473ffffffffffffffffffffffffffffffffffffffff1673ffffffffffffffffffffffffffffffffffffffff1673ffffffffffffffffffffffffffffffffffffffff16815260200190815260200160002060009054906101000a900460ff1615611c90576040517f08c379a0000000000000000000000000000000000000000000000000000000008152600401611c8790614727565b60405180910390fd5b6000600660008360000160019054906101000a900473ffffffffffffffffffffffffffffffffffffffff1673ffffffffffffffffffffffffffffffffffffffff1673ffffffffffffffffffffffffffffffffffffffff16815260200190815260200160002060006101000a81548160ff0219169083151502179055506000600860008360000160019054906101000a900473ffffffffffffffffffffffffffffffffffffffff1673ffffffffffffffffffffffffffffffffffffffff1673ffffffffffffffffffffffffffffffffffffffff16815260200190815260200160002054905060008114611f4f576000600182611d8b91906149e5565b905060006001600780549050611da191906149e5565b9050808214611e9c57600060078281548110611dc057611dbf614a19565b5b9060005260206000200160009054906101000a900473ffffffffffffffffffffffffffffffffffffffff1690508060078481548110611e0257611e01614a19565b5b9060005260206000200160006101000a81548173ffffffffffffffffffffffffffffffffffffffff021916908373ffffffffffffffffffffffffffffffffffffffff160217905550600183611e579190614a48565b600860008373ffffffffffffffffffffffffffffffffffffffff1673ffffffffffffffffffffffffffffffffffffffff16815260200190815260200160002081905550505b6007805480611eae57611ead614a7c565b5b6001900381819060005260206000200160006101000a81549073ffffffffffffffffffffffffffffffffffffffff021916905590556000600860008660000160019054906101000a900473ffffffffffffffffffffffffffffffffffffffff1673ffffffffffffffffffffffffffffffffffffffff1673ffffffffffffffffffffffffffffffffffffffff1681526020019081526020016000208190555050505b508060000160019054906101000a900473ffffffffffffffffffffffffffffffffffffffff1673ffffffffffffffffffffffffffffffffffffffff167f2da8853a4b9cb460e0d55b3ebaf4233e43c285958527a4dc0b67aa4b71b91af86000604051611fbb9190613c39565b60405180910390a26001600660008360010160009054906101000a900473ffffffffffffffffffffffffffffffffffffffff1673ffffffffffffffffffffffffffffffffffffffff1673ffffffffffffffffffffffffffffffffffffffff16815260200190815260200160002060006101000a81548160ff02191690831515021790555060078160010160009054906101000a900473ffffffffffffffffffffffffffffffffffffffff169080600181540180825580915050600190039060005260206000200160009091909190916101000a81548173ffffffffffffffffffffffffffffffffffffffff021916908373ffffffffffffffffffffffffffffffffffffffff160217905550600780549050600860008360010160009054906101000a900473ffffffffffffffffffffffffffffffffffffffff1673ffffffffffffffffffffffffffffffffffffffff1673ffffffffffffffffffffffffffffffffffffffff168152602001908152602001600020819055508060010160009054906101000a900473ffffffffffffffffffffffffffffffffffffffff1673ffffffffffffffffffffffffffffffffffffffff167f2da8853a4b9cb460e0d55b3ebaf4233e43c285958527a4dc0b67aa4b71b91af8600160405161219e9190613c39565b60405180910390a25b5b817f43210514c96d5149262de074f1c8fbaefe269ea87fd03e40f98e6dc9b85c99a98260000160009054906101000a900460ff168360000160019054906101000a900473ffffffffffffffffffffffffffffffffffffffff168460010160009054906101000a900473ffffffffffffffffffffffffffffffffffffffff1660405161223593929190615128565b60405180910390a25050565b6000600260009054906101000a900473ffffffffffffffffffffffffffffffffffffffff16905090565b61227361322b565b600660008673ffffffffffffffffffffffffffffffffffffffff1673ffffffffffffffffffffffffffffffffffffffff16815260200190815260200160002060009054906101000a900460ff166122ff576040517f08c379a00000000000000000000000000000000000000000000000000000000081526004016122f690614793565b60405180910390fd5b6000600281111561231357612312613d3b565b5b600460008b8152602001908152602001600020600201601c9054906101000a900460ff16600281111561234957612348613d3b565b5b14612389576040517f08c379a0000000000000000000000000000000000000000000000000000000008152600401612380906151ab565b60405180910390fd5b600087879050116123cf576040517f08c379a00000000000000000000000000000000000000000000000000000000081526004016123c690615217565b60405180910390fd5b60008467ffffffffffffffff161161241c576040517f08c379a000000000000000000000000000000000000000000000000000000000815260040161241390615283565b60405180910390fd5b6000888660405160200161243192919061530c565b6040516020818303038152906040528051906020012090506005600082815260200190815260200160002060009054906101000a900460ff16156124aa576040517f08c379a00000000000000000000000000000000000000000000000000000000081526004016124a190615384565b60405180910390fd5b600089858846896040516020016124c59594939291906153b3565b6040516020818303038152906040528051906020012090508a811461251f576040517f08c379a000000000000000000000000000000000000000000000000000000000815260040161251690615452565b60405180910390fd5b60006125328c8c8c8c8c8c8c8c8c6133b7565b90508773ffffffffffffffffffffffffffffffffffffffff168173ffffffffffffffffffffffffffffffffffffffff16146125a2576040517f08c379a0000000000000000000000000000000000000000000000000000000008152600401612599906154be565b60405180910390fd5b6040518061012001604052808c81526020018b8b8080601f016020809104026020016040519081016040528093929190818152602001838380828437600081840152601f19601f8201169050808301925050505050505081526020018973ffffffffffffffffffffffffffffffffffffffff1681526020018867ffffffffffffffff1681526020016001600281111561263e5761263d613d3b565b5b8152602001604051806020016040528060008152508152602001600067ffffffffffffffff16815260200186868080601f016020809104026020016040519081016040528093929190818152602001838380828437600081840152601f19601f820116905080830192505050505050508152602001876fffffffffffffffffffffffffffffffff1916815250600460008e81526020019081526020016000206000820151816000015560208201518160010190816126fc91906154de565b5060408201518160020160006101000a81548173ffffffffffffffffffffffffffffffffffffffff021916908373ffffffffffffffffffffffffffffffffffffffff16021790555060608201518160020160146101000a81548167ffffffffffffffff021916908367ffffffffffffffff160217905550608082015181600201601c6101000a81548160ff0219169083600281111561279e5761279d613d3b565b5b021790555060a08201518160030190816127b891906154de565b5060c08201518160040160006101000a81548167ffffffffffffffff021916908367ffffffffffffffff16021790555060e08201518160050190816127fd919061560b565b506101008201518160060160006101000a8154816fffffffffffffffffffffffffffffffff021916908360801c021790555090505060016005600085815260200190815260200160002060006101000a81548160ff0219169083151502179055508773ffffffffffffffffffffffffffffffffffffffff168c7f9785a0bd0b3fb086ef7cae9dd038e51a3917910c3c4fba7caa0e0c63bc393b658d8d8d8c8c6040516128ad9594939291906156dd565b60405180910390a35050506128c0613271565b505050505050505050565b60095481565b6060600780548060200260200160405190810160405280929190818152602001828054801561295557602002820191906000526020600020905b8160009054906101000a900473ffffffffffffffffffffffffffffffffffffffff1673ffffffffffffffffffffffffffffffffffffffff168152602001906001019080831161290b575b5050505050905090565b600b6020528060005260406000206000915090508060000160009054906101000a900460ff16908060000160019054906101000a900473ffffffffffffffffffffffffffffffffffffffff16908060010160009054906101000a900473ffffffffffffffffffffffffffffffffffffffff16908060010160149054906101000a900463ffffffff16908060010160189054906101000a900460ff16908060020160009054906101000a900467ffffffffffffffff16905086565b612a216131a4565b60008111612a64576040517f08c379a0000000000000000000000000000000000000000000000000000000008152600401612a5b90615777565b60405180910390fd5b806009819055507f6c09b6c73bd3f6be2ff04ca4cecf293730dc0ea531e112712bcd2f6cc69e5d5981604051612a9a9190613c63565b60405180910390a150565b6000612aaf6131a4565b600073ffffffffffffffffffffffffffffffffffffffff168273ffffffffffffffffffffffffffffffffffffffff1603612b1e576040517f08c379a0000000000000000000000000000000000000000000000000000000008152600401612b15906146bb565b60405180910390fd5b600660008373ffffffffffffffffffffffffffffffffffffffff1673ffffffffffffffffffffffffffffffffffffffff16815260200190815260200160002060009054906101000a900460ff1615612bab576040517f08c379a0000000000000000000000000000000000000000000000000000000008152600401612ba290614727565b60405180910390fd5b600a6000815480929190612bbe9061504b565b9190505590506040518060c0016040528060016002811115612be357612be2613d3b565b5b8152602001600073ffffffffffffffffffffffffffffffffffffffff1681526020018373ffffffffffffffffffffffffffffffffffffffff168152602001600063ffffffff1681526020016000151581526020014267ffffffffffffffff16815250600b600083815260200190815260200160002060008201518160000160006101000a81548160ff02191690836002811115612c8357612c82613d3b565b5b021790555060208201518160000160016101000a81548173ffffffffffffffffffffffffffffffffffffffff021916908373ffffffffffffffffffffffffffffffffffffffff16021790555060408201518160010160006101000a81548173ffffffffffffffffffffffffffffffffffffffff021916908373ffffffffffffffffffffffffffffffffffffffff16021790555060608201518160010160146101000a81548163ffffffff021916908363ffffffff16021790555060808201518160010160186101000a81548160ff02191690831515021790555060a08201518160020160006101000a81548167ffffffffffffffff021916908367ffffffffffffffff1602179055509050508173ffffffffffffffffffffffffffffffffffffffff16600073ffffffffffffffffffffffffffffffffffffffff16827f54a8f7d4d345108a078f81d9afe7f357383632f7e97e1a366ea07ccf375bb328600142604051612df1929190615093565b60405180910390a4919050565b612e066131a4565b600073ffffffffffffffffffffffffffffffffffffffff168173ffffffffffffffffffffffffffffffffffffffff1603612e785760006040517f1e4fbdf7000000000000000000000000000000000000000000000000000000008152600401612e6f91906140fd565b60405180910390fd5b612e818161327b565b50565b612e8c613aa2565b600460008381526020019081526020016000206040518061012001604052908160008201548152602001600182018054612ec590614cc4565b80601f0160208091040260200160405190810160405280929190818152602001828054612ef190614cc4565b8015612f3e5780601f10612f1357610100808354040283529160200191612f3e565b820191906000526020600020905b815481529060010190602001808311612f2157829003601f168201915b505050505081526020016002820160009054906101000a900473ffffffffffffffffffffffffffffffffffffffff1673ffffffffffffffffffffffffffffffffffffffff1673ffffffffffffffffffffffffffffffffffffffff1681526020016002820160149054906101000a900467ffffffffffffffff1667ffffffffffffffff1667ffffffffffffffff16815260200160028201601c9054906101000a900460ff166002811115612ff457612ff3613d3b565b5b600281111561300657613005613d3b565b5b815260200160038201805461301a90614cc4565b80601f016020809104026020016040519081016040528092919081815260200182805461304690614cc4565b80156130935780601f1061306857610100808354040283529160200191613093565b820191906000526020600020905b81548152906001019060200180831161307657829003601f168201915b505050505081526020016004820160009054906101000a900467ffffffffffffffff1667ffffffffffffffff1667ffffffffffffffff1681526020016005820180546130de90614cc4565b80601f016020809104026020016040519081016040528092919081815260200182805461310a90614cc4565b80156131575780601f1061312c57610100808354040283529160200191613157565b820191906000526020600020905b81548152906001019060200180831161313a57829003601f168201915b505050505081526020016006820160009054906101000a900460801b6fffffffffffffffffffffffffffffffff19166fffffffffffffffffffffffffffffffff1916815250509050919050565b6131ac61349e565b73ffffffffffffffffffffffffffffffffffffffff166131ca612241565b73ffffffffffffffffffffffffffffffffffffffff1614613229576131ed61349e565b6040517f118cdaa700000000000000000000000000000000000000000000000000000000815260040161322091906140fd565b60405180910390fd5b565b600260035403613267576040517f3ee5aeb500000000000000000000000000000000000000000000000000000000815260040160405180910390fd5b6002600381905550565b6001600381905550565b6000600260009054906101000a900473ffffffffffffffffffffffffffffffffffffffff16905081600260006101000a81548173ffffffffffffffffffffffffffffffffffffffff021916908373ffffffffffffffffffffffffffffffffffffffff1602179055508173ffffffffffffffffffffffffffffffffffffffff168173ffffffffffffffffffffffffffffffffffffffff167f8be0079c531659141344cd1fd0a4f28419497f9722a3daafe3b4186f6b6457e060405160405180910390a35050565b606061337760007f00000000000000000000000000000000000000000000000000000000000000006134a690919063ffffffff16565b905090565b60606133b260017f00000000000000000000000000000000000000000000000000000000000000006134a690919063ffffffff16565b905090565b6000807f4b562eb251233df69234f47d5cfa0779ac7d5aeb3c235846080853cafdbff6458b8b8b8b6040516133ed9291906157c7565b60405180910390208a8a67ffffffffffffffff16468b60405160200161341a9897969594939291906157e0565b604051602081830303815290604052805190602001209050600061343d82613556565b905061348d8186868080601f016020809104026020016040519081016040528093929190818152602001838380828437600081840152601f19601f82011690508083019250505050505050613570565b925050509998505050505050505050565b600033905090565b606060ff60001b83146134c3576134bc8361359c565b9050613550565b8180546134cf90614cc4565b80601f01602080910402602001604051908101604052809291908181526020018280546134fb90614cc4565b80156135485780601f1061351d57610100808354040283529160200191613548565b820191906000526020600020905b81548152906001019060200180831161352b57829003601f168201915b505050505090505b92915050565b6000613569613563613610565b836136c7565b9050919050565b6000806000806135808686613708565b9250925092506135908282613764565b82935050505092915050565b606060006135a9836138c8565b90506000602067ffffffffffffffff8111156135c8576135c7614c66565b5b6040519080825280601f01601f1916602001820160405280156135fa5781602001600182028036833780820191505090505b5090508181528360208201528092505050919050565b60007f000000000000000000000000000000000000000000000000000000000000000073ffffffffffffffffffffffffffffffffffffffff163073ffffffffffffffffffffffffffffffffffffffff1614801561368c57507f000000000000000000000000000000000000000000000000000000000000000046145b156136b9577f000000000000000000000000000000000000000000000000000000000000000090506136c4565b6136c1613918565b90505b90565b60006040517f190100000000000000000000000000000000000000000000000000000000000081528360028201528260228201526042812091505092915050565b6000806000604184510361374d5760008060006020870151925060408701519150606087015160001a905061373f888285856139ae565b95509550955050505061375d565b60006002855160001b9250925092505b9250925092565b6000600381111561377857613777613d3b565b5b82600381111561378b5761378a613d3b565b5b03156138c457600160038111156137a5576137a4613d3b565b5b8260038111156137b8576137b7613d3b565b5b036137ef576040517ff645eedf00000000000000000000000000000000000000000000000000000000815260040160405180910390fd5b6002600381111561380357613802613d3b565b5b82600381111561381657613815613d3b565b5b0361385b578060001c6040517ffce698f70000000000000000000000000000000000000000000000000000000081526004016138529190613c63565b60405180910390fd5b60038081111561386e5761386d613d3b565b5b82600381111561388157613880613d3b565b5b036138c357806040517fd78bce0c0000000000000000000000000000000000000000000000000000000081526004016138ba919061585e565b60405180910390fd5b5b5050565b60008060ff8360001c169050601f81111561390f576040517fb3512b0c00000000000000000000000000000000000000000000000000000000815260040160405180910390fd5b80915050919050565b60007f8b73c3c69bb8fe3d512ecc4cf759cc79239f7b179b0ffacaa9a75d522b39400f7f00000000000000000000000000000000000000000000000000000000000000007f00000000000000000000000000000000000000000000000000000000000000004630604051602001613993959493929190615879565b60405160208183030381529060405280519060200120905090565b60008060007f7fffffffffffffffffffffffffffffff5d576e7357a4501ddfe92f46681b20a08460001c11156139ee576000600385925092509250613a98565b600060018888888860405160008152602001604052604051613a1394939291906158e8565b6020604051602081039080840390855afa158015613a35573d6000803e3d6000fd5b505050602060405103519050600073ffffffffffffffffffffffffffffffffffffffff168173ffffffffffffffffffffffffffffffffffffffff1603613a8957600060016000801b93509350935050613a98565b8060008060001b935093509350505b9450945094915050565b6040518061012001604052806000801916815260200160608152602001600073ffffffffffffffffffffffffffffffffffffffff168152602001600067ffffffffffffffff16815260200160006002811115613b0157613b00613d3b565b5b815260200160608152602001600067ffffffffffffffff1681526020016060815260200160006fffffffffffffffffffffffffffffffff191681525090565b600080fd5b600080fd5b6000819050919050565b613b5d81613b4a565b8114613b6857600080fd5b50565b600081359050613b7a81613b54565b92915050565b600073ffffffffffffffffffffffffffffffffffffffff82169050919050565b6000613bab82613b80565b9050919050565b613bbb81613ba0565b8114613bc657600080fd5b50565b600081359050613bd881613bb2565b92915050565b60008060408385031215613bf557613bf4613b40565b5b6000613c0385828601613b6b565b9250506020613c1485828601613bc9565b9150509250929050565b60008115159050919050565b613c3381613c1e565b82525050565b6000602082019050613c4e6000830184613c2a565b92915050565b613c5d81613b4a565b82525050565b6000602082019050613c786000830184613c54565b92915050565b600060208284031215613c9457613c93613b40565b5b6000613ca284828501613bc9565b91505092915050565b600060208284031215613cc157613cc0613b40565b5b6000613ccf84828501613b6b565b91505092915050565b6000819050919050565b613ceb81613cd8565b8114613cf657600080fd5b50565b600081359050613d0881613ce2565b92915050565b600060208284031215613d2457613d23613b40565b5b6000613d3284828501613cf9565b91505092915050565b7f4e487b7100000000000000000000000000000000000000000000000000000000600052602160045260246000fd5b60038110613d7b57613d7a613d3b565b5b50565b6000819050613d8c82613d6a565b919050565b6000613d9c82613d7e565b9050919050565b613dac81613d91565b82525050565b6000602082019050613dc76000830184613da3565b92915050565b600080fd5b600080fd5b600080fd5b60008083601f840112613df257613df1613dcd565b5b8235905067ffffffffffffffff811115613e0f57613e0e613dd2565b5b602083019150836001820283011115613e2b57613e2a613dd7565b5b9250929050565b600080600060408486031215613e4b57613e4a613b40565b5b6000613e5986828701613cf9565b935050602084013567ffffffffffffffff811115613e7a57613e79613b45565b5b613e8686828701613ddc565b92509250509250925092565b60008060408385031215613ea957613ea8613b40565b5b6000613eb785828601613bc9565b9250506020613ec885828601613bc9565b9150509250929050565b60007fff0000000000000000000000000000000000000000000000000000000000000082169050919050565b613f0781613ed2565b82525050565b600081519050919050565b600082825260208201905092915050565b60005b83811015613f47578082015181840152602081019050613f2c565b60008484015250505050565b6000601f19601f8301169050919050565b6000613f6f82613f0d565b613f798185613f18565b9350613f89818560208601613f29565b613f9281613f53565b840191505092915050565b613fa681613ba0565b82525050565b613fb581613cd8565b82525050565b600081519050919050565b600082825260208201905092915050565b6000819050602082019050919050565b613ff081613b4a565b82525050565b60006140028383613fe7565b60208301905092915050565b6000602082019050919050565b600061402682613fbb565b6140308185613fc6565b935061403b83613fd7565b8060005b8381101561406c5781516140538882613ff6565b975061405e8361400e565b92505060018101905061403f565b5085935050505092915050565b600060e08201905061408e600083018a613efe565b81810360208301526140a08189613f64565b905081810360408301526140b48188613f64565b90506140c36060830187613c54565b6140d06080830186613f9d565b6140dd60a0830185613fac565b81810360c08301526140ef818461401b565b905098975050505050505050565b60006020820190506141126000830184613f9d565b92915050565b600067ffffffffffffffff82169050919050565b61413581614118565b811461414057600080fd5b50565b6000813590506141528161412c565b92915050565b60007fffffffffffffffffffffffffffffffff0000000000000000000000000000000082169050919050565b61418d81614158565b811461419857600080fd5b50565b6000813590506141aa81614184565b92915050565b60008083601f8401126141c6576141c5613dcd565b5b8235905067ffffffffffffffff8111156141e3576141e2613dd2565b5b6020830191508360018202830111156141ff576141fe613dd7565b5b9250929050565b600080600080600080600080600060e08a8c03121561422857614227613b40565b5b60006142368c828d01613cf9565b99505060206142478c828d01613cf9565b98505060408a013567ffffffffffffffff81111561426857614267613b45565b5b6142748c828d01613ddc565b975097505060606142878c828d01613bc9565b95505060806142988c828d01614143565b94505060a06142a98c828d0161419b565b93505060c08a013567ffffffffffffffff8111156142ca576142c9613b45565b5b6142d68c828d016141b0565b92509250509295985092959850929598565b600081519050919050565b600082825260208201905092915050565b6000819050602082019050919050565b61431d81613ba0565b82525050565b600061432f8383614314565b60208301905092915050565b6000602082019050919050565b6000614353826142e8565b61435d81856142f3565b935061436883614304565b8060005b838110156143995781516143808882614323565b975061438b8361433b565b92505060018101905061436c565b5085935050505092915050565b600060208201905081810360008301526143c08184614348565b905092915050565b600381106143d9576143d8613d3b565b5b50565b60008190506143ea826143c8565b919050565b60006143fa826143dc565b9050919050565b61440a816143ef565b82525050565b600063ffffffff82169050919050565b61442981614410565b82525050565b61443881614118565b82525050565b600060c0820190506144536000830189614401565b6144606020830188613f9d565b61446d6040830187613f9d565b61447a6060830186614420565b6144876080830185613c2a565b61449460a083018461442f565b979650505050505050565b6144a881613cd8565b82525050565b600082825260208201905092915050565b60006144ca82613f0d565b6144d481856144ae565b93506144e4818560208601613f29565b6144ed81613f53565b840191505092915050565b61450181614118565b82525050565b61451081613d91565b82525050565b600081519050919050565b600082825260208201905092915050565b600061453d82614516565b6145478185614521565b9350614557818560208601613f29565b61456081613f53565b840191505092915050565b61457481614158565b82525050565b600061012083016000830151614593600086018261449f565b50602083015184820360208601526145ab82826144bf565b91505060408301516145c06040860182614314565b5060608301516145d360608601826144f8565b5060808301516145e66080860182614507565b5060a083015184820360a08601526145fe82826144bf565b91505060c083015161461360c08601826144f8565b5060e083015184820360e086015261462b8282614532565b91505061010083015161464261010086018261456b565b508091505092915050565b60006020820190508181036000830152614667818461457a565b905092915050565b7f497373756572207a65726f000000000000000000000000000000000000000000600082015250565b60006146a5600b83613f18565b91506146b08261466f565b602082019050919050565b600060208201905081810360008301526146d481614698565b9050919050565b7f416c726561647920697373756572000000000000000000000000000000000000600082015250565b6000614711600e83613f18565b915061471c826146db565b602082019050919050565b6000602082019050818103600083015261474081614704565b9050919050565b7f497373756572206e6f7420617574686f72697a65640000000000000000000000600082015250565b600061477d601583613f18565b915061478882614747565b602082019050919050565b600060208201905081810360008301526147ac81614770565b9050919050565b7f50726f706f73616c206d697373696e6700000000000000000000000000000000600082015250565b60006147e9601083613f18565b91506147f4826147b3565b602082019050919050565b60006020820190508181036000830152614818816147dc565b9050919050565b7f416c726561647920657865637574656400000000000000000000000000000000600082015250565b6000614855601083613f18565b91506148608261481f565b602082019050919050565b6000602082019050818103600083015261488481614848565b9050919050565b7f416c726561647920617070726f76656400000000000000000000000000000000600082015250565b60006148c1601083613f18565b91506148cc8261488b565b602082019050919050565b600060208201905081810360008301526148f0816148b4565b9050919050565b7f4e487b7100000000000000000000000000000000000000000000000000000000600052601160045260246000fd5b600061493182614410565b915061493c83614410565b9250828201905063ffffffff811115614958576149576148f7565b5b92915050565b60006020820190506149736000830184614420565b92915050565b7f4e6f742069737375657200000000000000000000000000000000000000000000600082015250565b60006149af600a83613f18565b91506149ba82614979565b602082019050919050565b600060208201905081810360008301526149de816149a2565b9050919050565b60006149f082613b4a565b91506149fb83613b4a565b9250828203905081811115614a1357614a126148f7565b5b92915050565b7f4e487b7100000000000000000000000000000000000000000000000000000000600052603260045260246000fd5b6000614a5382613b4a565b9150614a5e83613b4a565b9250828201905080821115614a7657614a756148f7565b5b92915050565b7f4e487b7100000000000000000000000000000000000000000000000000000000600052603160045260246000fd5b7f4e6f742061637469766500000000000000000000000000000000000000000000600082015250565b6000614ae1600a83613f18565b9150614aec82614aab565b602082019050919050565b60006020820190508181036000830152614b1081614ad4565b9050919050565b7f4e6f7420617574686f72697a6564000000000000000000000000000000000000600082015250565b6000614b4d600e83613f18565b9150614b5882614b17565b602082019050919050565b60006020820190508181036000830152614b7c81614b40565b9050919050565b7f526561736f6e2072657175697265640000000000000000000000000000000000600082015250565b6000614bb9600f83613f18565b9150614bc482614b83565b602082019050919050565b60006020820190508181036000830152614be881614bac565b9050919050565b7f526561736f6e20746f6f206c6f6e670000000000000000000000000000000000600082015250565b6000614c25600f83613f18565b9150614c3082614bef565b602082019050919050565b60006020820190508181036000830152614c5481614c18565b9050919050565b600082905092915050565b7f4e487b7100000000000000000000000000000000000000000000000000000000600052604160045260246000fd5b7f4e487b7100000000000000000000000000000000000000000000000000000000600052602260045260246000fd5b60006002820490506001821680614cdc57607f821691505b602082108103614cef57614cee614c95565b5b50919050565b60008190508160005260206000209050919050565b60006020601f8301049050919050565b600082821b905092915050565b600060088302614d577fffffffffffffffffffffffffffffffffffffffffffffffffffffffffffffffff82614d1a565b614d618683614d1a565b95508019841693508086168417925050509392505050565b6000819050919050565b6000614d9e614d99614d9484613b4a565b614d79565b613b4a565b9050919050565b6000819050919050565b614db883614d83565b614dcc614dc482614da5565b848454614d27565b825550505050565b600090565b614de1614dd4565b614dec818484614daf565b505050565b5b81811015614e1057614e05600082614dd9565b600181019050614df2565b5050565b601f821115614e5557614e2681614cf5565b614e2f84614d0a565b81016020851015614e3e578190505b614e52614e4a85614d0a565b830182614df1565b50505b505050565b600082821c905092915050565b6000614e7860001984600802614e5a565b1980831691505092915050565b6000614e918383614e67565b9150826002028217905092915050565b614eab8383614c5b565b67ffffffffffffffff811115614ec457614ec3614c66565b5b614ece8254614cc4565b614ed9828285614e14565b6000601f831160018114614f085760008415614ef6578287013590505b614f008582614e85565b865550614f68565b601f198416614f1686614cf5565b60005b82811015614f3e57848901358255600182019150602085019450602081019050614f19565b86831015614f5b5784890135614f57601f891682614e67565b8355505b6001600288020188555050505b50505050505050565b82818337600083830152505050565b6000614f8c8385613f18565b9350614f99838584614f71565b614fa283613f53565b840190509392505050565b60006040820190508181036000830152614fc8818587614f80565b9050614fd7602083018461442f565b949350505050565b7f53616d6520697373756572000000000000000000000000000000000000000000600082015250565b6000615015600b83613f18565b915061502082614fdf565b602082019050919050565b6000602082019050818103600083015261504481615008565b9050919050565b600061505682613b4a565b91507fffffffffffffffffffffffffffffffffffffffffffffffffffffffffffffffff8203615088576150876148f7565b5b600182019050919050565b60006040820190506150a86000830185614401565b6150b5602083018461442f565b9392505050565b7f496e73756666696369656e7420617070726f76616c7300000000000000000000600082015250565b60006150f2601683613f18565b91506150fd826150bc565b602082019050919050565b60006020820190508181036000830152615121816150e5565b9050919050565b600060608201905061513d6000830186614401565b61514a6020830185613f9d565b6151576040830184613f9d565b949350505050565b7f4365727469666963617465206578697374730000000000000000000000000000600082015250565b6000615195601283613f18565b91506151a08261515f565b602082019050919050565b600060208201905081810360008301526151c481615188565b9050919050565b7f73746f7261676555524920656d70747900000000000000000000000000000000600082015250565b6000615201601083613f18565b915061520c826151cb565b602082019050919050565b60006020820190508181036000830152615230816151f4565b9050919050565b7f6973737565644174207a65726f00000000000000000000000000000000000000600082015250565b600061526d600d83613f18565b915061527882615237565b602082019050919050565b6000602082019050818103600083015261529c81615260565b9050919050565b6000819050919050565b6152be6152b982613cd8565b6152a3565b82525050565b60008160601b9050919050565b60006152dc826152c4565b9050919050565b60006152ee826152d1565b9050919050565b61530661530182613ba0565b6152e3565b82525050565b600061531882856152ad565b60208201915061532882846152f5565b6014820191508190509392505050565b7f4475706c696361746520646f63486173682b6973737565720000000000000000600082015250565b600061536e601883613f18565b915061537982615338565b602082019050919050565b6000602082019050818103600083015261539d81615361565b9050919050565b6153ad81614158565b82525050565b600060a0820190506153c86000830188613fac565b6153d560208301876153a4565b6153e26040830186613f9d565b6153ef6060830185613c54565b6153fc608083018461442f565b9695505050505050565b7f63657274696669636174654964206d69736d6174636800000000000000000000600082015250565b600061543c601683613f18565b915061544782615406565b602082019050919050565b6000602082019050818103600083015261546b8161542f565b9050919050565b7f496e76616c6964207369676e6174757265000000000000000000000000000000600082015250565b60006154a8601183613f18565b91506154b382615472565b602082019050919050565b600060208201905081810360008301526154d78161549b565b9050919050565b6154e782613f0d565b67ffffffffffffffff811115615500576154ff614c66565b5b61550a8254614cc4565b615515828285614e14565b600060209050601f8311600181146155485760008415615536578287015190505b6155408582614e85565b8655506155a8565b601f19841661555686614cf5565b60005b8281101561557e57848901518255600182019150602085019450602081019050615559565b8683101561559b5784890151615597601f891682614e67565b8355505b6001600288020188555050505b505050505050565b60008190508160005260206000209050919050565b601f821115615606576155d7816155b0565b6155e084614d0a565b810160208510156155ef578190505b6156036155fb85614d0a565b830182614df1565b50505b505050565b61561482614516565b67ffffffffffffffff81111561562d5761562c614c66565b5b6156378254614cc4565b6156428282856155c5565b600060209050601f8311600181146156755760008415615663578287015190505b61566d8582614e85565b8655506156d5565b601f198416615683866155b0565b60005b828110156156ab57848901518255600182019150602085019450602081019050615686565b868310156156c857848901516156c4601f891682614e67565b8355505b6001600288020188555050505b505050505050565b60006080820190506156f26000830188613fac565b8181036020830152615705818688614f80565b9050615714604083018561442f565b61572160608301846153a4565b9695505050505050565b7f5468726573686f6c64207a65726f000000000000000000000000000000000000600082015250565b6000615761600e83613f18565b915061576c8261572b565b602082019050919050565b6000602082019050818103600083015261579081615754565b9050919050565b600081905092915050565b60006157ae8385615797565b93506157bb838584614f71565b82840190509392505050565b60006157d48284866157a2565b91508190509392505050565b6000610100820190506157f6600083018b613fac565b615803602083018a613fac565b6158106040830189613fac565b61581d6060830188613fac565b61582a6080830187613f9d565b61583760a0830186613c54565b61584460c0830185613c54565b61585160e08301846153a4565b9998505050505050505050565b60006020820190506158736000830184613fac565b92915050565b600060a08201905061588e6000830188613fac565b61589b6020830187613fac565b6158a86040830186613fac565b6158b56060830185613c54565b6158c26080830184613f9d565b9695505050505050565b600060ff82169050919050565b6158e2816158cc565b82525050565b60006080820190506158fd6000830187613fac565b61590a60208301866158d9565b6159176040830185613fac565b6159246060830184613fac565b9594505050505056fea26469706673582212202d1bda6d20629057712ecbbf4e81d37033866921edd186f099900fe45551e3a064736f6c634300081c0033",
  "linkReferences": {},
  "deployedLinkReferences": {}
}